8=FIXT.1.1|9=79|35=A|34=1|49=ATP1CMEMY|52=20130724-03:42:30.876|56=OMSCMEMY|98=0|108=60|1137=7|10=151|8=FIXT.1.1|9=60|35=5|34=2|49=ATP1CMEMY|52=20130724-03:43:17.029|56=OMSCMEMY|10=033|8=FIXT.1.1|9=79|35=A|34=3|49=ATP1CMEMY|52=20130724-03:43:32.284|56=OMSCMEMY|98=0|108=60|1137=7|10=149|8=FIXT.1.1|9=60|35=5|34=4|49=ATP1CMEMY|52=20130724-03:44:01.405|56=OMSCMEMY|10=027|8=FIXT.1.1|9=79|35=A|34=5|49=ATP1CMEMY|52=20130724-03:44:26.997|56=OMSCMEMY|98=0|108=60|1137=7|10=166|8=FIXT.1.1|9=198|35=D|34=6|49=ATP1CMEMY|52=20130724-03:44:42.610|56=OMSCMEMY|1=C1000003|11=25ecf178-55e3-4914-90d6-53db38ff46c5|38=1|40=2|44=1.38|54=1|55=9955|59=0|60=20130724-11:44:42.595|107=GEZ8|167=FUT|207=XLOF|10=054|8=FIXT.1.1|9=60|35=0|34=7|49=ATP1CMEMY|52=20130724-03:45:42.725|56=OMSCMEMY|10=036|8=FIXT.1.1|9=60|35=5|34=8|49=ATP1CMEMY|52=20130724-03:45:45.734|56=OMSCMEMY|10=045|8=FIXT.1.1|9=79|35=A|34=9|49=ATP1CMEMY|52=20130724-03:45:58.550|56=OMSCMEMY|98=0|108=60|1137=7|10=161|8=FIXT.1.1|9=199|35=D|34=10|49=ATP1CMEMY|52=20130724-03:46:09.707|56=OMSCMEMY|1=C1000009|11=b3ca2899-e5c0-4af1-98df-27df2198fff0|38=1|40=2|44=1.38|54=1|55=2346|59=0|60=20130724-11:46:09.691|107=GEZ8|167=FUT|207=XLOF|10=040|8=FIXT.1.1|9=199|35=D|34=11|49=ATP1CMEMY|52=20130724-03:46:10.146|56=OMSCMEMY|1=C1000004|11=6a480db6-c931-4b45-8693-21d548826fcc|38=1|40=2|44=1.38|54=1|55=7788|59=0|60=20130724-11:46:10.145|107=GEZ8|167=FUT|207=XLOF|10=036|8=FIXT.1.1|9=61|35=0|34=12|49=ATP1CMEMY|52=20130724-03:47:10.201|56=OMSCMEMY|10=067|8=FIXT.1.1|9=61|35=5|34=13|49=ATP1CMEMY|52=20130724-03:48:00.236|56=OMSCMEMY|10=081|8=FIXT.1.1|9=80|35=A|34=14|49=ATP1CMEMY|52=20130724-03:48:07.734|56=OMSCMEMY|98=0|108=60|1137=7|10=198|8=FIXT.1.1|9=61|35=5|34=15|49=ATP1CMEMY|52=20130724-03:48:21.857|56=OMSCMEMY|10=095|8=FIXT.1.1|9=80|35=A|34=16|49=ATP1CMEMY|52=20130724-03:49:13.375|56=OMSCMEMY|98=0|108=60|1137=7|10=199|8=FIXT.1.1|9=199|35=D|34=17|49=ATP1CMEMY|52=20130724-03:49:30.010|56=OMSCMEMY|1=C1000004|11=854d7d0d-fb90-47f1-a590-1470006e9ebf|38=1|40=2|44=1.38|54=1|55=1113|59=0|60=20130724-11:49:29.996|107=GEZ8|167=FUT|207=XLOF|10=127|8=FIXT.1.1|9=70|35=1|34=18|49=ATP1CMEMY|52=20130724-03:50:47.700|56=OMSCMEMY|112=TEST|10=100|8=FIXT.1.1|9=70|35=0|34=19|49=ATP1CMEMY|52=20130724-03:50:47.730|56=OMSCMEMY|112=TEST|10=103|8=FIXT.1.1|9=61|35=5|34=20|49=ATP1CMEMY|52=20130724-03:50:47.733|56=OMSCMEMY|10=085|8=FIXT.1.1|9=80|35=A|34=21|49=ATP1CMEMY|52=20130724-06:18:38.246|56=OMSCMEMY|98=0|108=60|1137=7|10=198|8=FIXT.1.1|9=199|35=D|34=22|49=ATP1CMEMY|52=20130724-06:18:54.405|56=OMSCMEMY|1=C1000007|11=7734968c-256f-48a0-8f2c-b78c3c2cc29e|38=1|40=2|44=1.38|54=1|55=1122|59=0|60=20130724-14:18:54.391|107=GEZ8|167=FUT|207=XLOF|10=142|8=FIXT.1.1|9=61|35=0|34=23|49=ATP1CMEMY|52=20130724-06:19:54.511|56=OMSCMEMY|10=083|8=FIXT.1.1|9=61|35=5|34=24|49=ATP1CMEMY|52=20130724-06:20:52.551|56=OMSCMEMY|10=083|8=FIXT.1.1|9=80|35=A|34=25|49=ATP1CMEMY|52=20130724-08:19:41.375|56=OMSCMEMY|98=0|108=60|1137=7|10=202|8=FIXT.1.1|9=199|35=D|34=26|49=ATP1CMEMY|52=20130724-08:19:56.494|56=OMSCMEMY|1=C1000006|11=5faaa0c9-b2aa-4264-8b04-a7e0ba25985f|38=1|40=2|44=1.38|54=1|55=4545|59=0|60=20130724-16:19:56.478|107=GEZ8|167=FUT|207=XLOF|10=034|8=FIXT.1.1|9=61|35=0|34=27|49=ATP1CMEMY|52=20130724-08:20:56.596|56=OMSCMEMY|10=096|8=FIXT.1.1|9=61|35=5|34=28|49=ATP1CMEMY|52=20130724-08:21:36.624|56=OMSCMEMY|10=093|8=FIXT.1.1|9=80|35=A|34=29|49=ATP1CMEMY|52=20130724-08:34:24.746|56=OMSCMEMY|98=0|108=60|1137=7|10=206|8=FIXT.1.1|9=199|35=D|34=30|49=ATP1CMEMY|52=20130724-08:34:36.217|56=OMSCMEMY|1=C1000006|11=62598b0a-f555-4400-b2c3-f0a8fc072d37|38=1|40=2|44=1.38|54=1|55=9955|59=0|60=20130724-16:34:36.202|107=GEZ8|167=FUT|207=XLOF|10=077|8=FIXT.1.1|9=199|35=D|34=31|49=ATP1CMEMY|52=20130724-08:34:38.871|56=OMSCMEMY|1=C1000008|11=56e3d5f1-f5ef-48dc-af28-32abc5df75e7|38=1|40=2|44=1.38|54=1|55=2346|59=0|60=20130724-16:34:38.871|107=GEZ8|167=FUT|207=XLOF|10=145|8=FIXT.1.1|9=61|35=5|34=32|49=ATP1CMEMY|52=20130724-08:35:24.655|56=OMSCMEMY|10=094|8=FIXT.1.1|9=80|35=A|34=33|49=ATP1CMEMY|52=20130724-08:35:55.021|56=OMSCMEMY|98=0|108=60|1137=7|10=192|8=FIXT.1.1|9=199|35=D|34=34|49=ATP1CMEMY|52=20130724-08:36:07.432|56=OMSCMEMY|1=C1000010|11=d9b0ff22-759b-4ff8-8706-898e2d655fcd|38=1|40=2|44=1.38|54=1|55=9955|59=0|60=20130724-16:36:07.418|107=GEZ8|167=FUT|207=XLOF|10=225|8=FIXT.1.1|9=61|35=0|34=35|49=ATP1CMEMY|52=20130724-08:37:07.602|56=OMSCMEMY|10=087|8=FIXT.1.1|9=80|35=A|34=36|49=ATP1CMEMY|52=20130724-08:41:19.175|56=OMSCMEMY|98=0|108=60|1137=7|10=202|8=FIXT.1.1|9=199|35=D|34=37|49=ATP1CMEMY|52=20130724-08:41:28.952|56=OMSCMEMY|1=C1000006|11=ff8b9b01-f516-4aa6-95bc-bc2f429c2161|38=1|40=2|44=1.38|54=1|55=6688|59=0|60=20130724-16:41:28.936|107=GEZ8|167=FUT|207=XLOF|10=251|8=FIXT.1.1|9=61|35=0|34=38|49=ATP1CMEMY|52=20130724-08:42:29.095|56=OMSCMEMY|10=096|8=FIXT.1.1|9=61|35=5|34=39|49=ATP1CMEMY|52=20130724-08:43:26.137|56=OMSCMEMY|10=097|8=FIXT.1.1|9=80|35=A|34=40|49=ATP1CMEMY|52=20130724-08:53:25.604|56=OMSCMEMY|98=0|108=60|1137=7|10=194|8=FIXT.1.1|9=199|35=D|34=41|49=ATP1CMEMY|52=20130724-08:53:33.609|56=OMSCMEMY|1=C1000008|11=5293adce-4188-4241-969d-6f6fa2b7ab7b|38=1|40=2|44=1.38|54=1|55=4545|59=0|60=20130724-16:53:33.595|107=GEZ8|167=FUT|207=XLOF|10=204|8=FIXT.1.1|9=61|35=5|34=42|49=ATP1CMEMY|52=20130724-08:54:11.706|56=OMSCMEMY|10=089|8=FIXT.1.1|9=80|35=A|34=43|49=ATP1CMEMY|52=20130724-08:54:33.108|56=OMSCMEMY|98=0|108=60|1137=7|10=196|8=FIXT.1.1|9=199|35=D|34=44|49=ATP1CMEMY|52=20130724-08:55:10.677|56=OMSCMEMY|1=C1000008|11=897d4124-4879-44d7-bab3-d23b54670869|38=1|40=2|44=1.38|54=1|55=9995|59=0|60=20130724-16:55:10.648|107=GEZ8|167=FUT|207=XLOF|10=245|8=FIXT.1.1|9=61|35=5|34=45|49=ATP1CMEMY|52=20130724-08:55:39.773|56=OMSCMEMY|10=107|8=FIXT.1.1|9=80|35=A|34=46|49=ATP1CMEMY|52=20130724-09:21:41.542|56=OMSCMEMY|98=0|108=60|1137=7|10=195|8=FIXT.1.1|9=199|35=D|34=47|49=ATP1CMEMY|52=20130724-09:27:29.672|56=OMSCMEMY|1=C1000004|11=4eb6753d-d7b2-4f1e-83d6-d733e4119a3a|38=1|40=2|44=1.38|54=1|55=9555|59=0|60=20130724-17:27:29.622|107=GEZ8|167=FUT|207=XLOF|10=207|8=FIXT.1.1|9=80|35=A|34=48|49=ATP1CMEMY|52=20130724-09:29:51.032|56=OMSCMEMY|98=0|108=60|1137=7|10=200|8=FIXT.1.1|9=71|35=2|34=49|49=ATP1CMEMY|52=20130724-09:29:51.282|56=OMSCMEMY|7=48|16=0|10=026|8=FIXT.1.1|9=199|35=D|34=50|49=ATP1CMEMY|52=20130724-09:30:47.672|56=OMSCMEMY|1=C1000007|11=cd6f8553-5980-4d05-9d3d-3deae9c7053e|38=1|40=2|44=1.38|54=1|55=1113|59=0|60=20130724-17:30:47.646|107=GEZ8|167=FUT|207=XLOF|10=195|8=FIXT.1.1|9=61|35=5|34=51|49=ATP1CMEMY|52=20130724-09:31:45.747|56=OMSCMEMY|10=097|8=FIXT.1.1|9=80|35=A|34=52|49=ATP1CMEMY|52=20130724-09:32:57.072|56=OMSCMEMY|98=0|108=60|1137=7|10=199|8=FIXT.1.1|9=199|35=D|34=53|49=ATP1CMEMY|52=20130724-09:33:31.611|56=OMSCMEMY|1=C1000010|11=328f7c90-e663-433c-b64d-ef0b64f410a4|38=1|40=2|44=1.38|54=1|55=9555|59=0|60=20130724-17:33:31.589|107=GEZ8|167=FUT|207=XLOF|10=134|8=FIXT.1.1|9=61|35=0|34=54|49=ATP1CMEMY|52=20130724-09:34:31.677|56=OMSCMEMY|10=095|8=FIXT.1.1|9=61|35=0|34=55|49=ATP1CMEMY|52=20130724-09:35:31.730|56=OMSCMEMY|10=087|8=FIXT.1.1|9=61|35=0|34=56|49=ATP1CMEMY|52=20130724-09:36:31.774|56=OMSCMEMY|10=097|8=FIXT.1.1|9=61|35=0|34=57|49=ATP1CMEMY|52=20130724-09:37:31.822|56=OMSCMEMY|10=093|8=FIXT.1.1|9=61|35=0|34=58|49=ATP1CMEMY|52=20130724-09:38:31.871|56=OMSCMEMY|10=099|8=FIXT.1.1|9=61|35=0|34=59|49=ATP1CMEMY|52=20130724-09:39:31.924|56=OMSCMEMY|10=100|8=FIXT.1.1|9=61|35=0|34=60|49=ATP1CMEMY|52=20130724-09:40:31.967|56=OMSCMEMY|10=091|8=FIXT.1.1|9=61|35=0|34=61|49=ATP1CMEMY|52=20130724-09:41:32.023|56=OMSCMEMY|10=077|8=FIXT.1.1|9=61|35=0|34=62|49=ATP1CMEMY|52=20130724-09:42:32.073|56=OMSCMEMY|10=084|8=FIXT.1.1|9=61|35=0|34=63|49=ATP1CMEMY|52=20130724-09:43:32.119|56=OMSCMEMY|10=087|8=FIXT.1.1|9=61|35=0|34=64|49=ATP1CMEMY|52=20130724-09:44:32.165|56=OMSCMEMY|10=090|8=FIXT.1.1|9=61|35=5|34=65|49=ATP1CMEMY|52=20130724-09:44:37.172|56=OMSCMEMY|10=099|