8=FIXT.1.1|9=44|35=0|52=20111124-05:33:31.763|1180=JSEFTSEP|10=095|8=FIXT.1.1|9=44|35=0|52=20111124-05:33:31.763|1180=JSEFTSEP|10=095|8=FIXT.1.1|9=44|35=0|52=20111124-05:33:33.764|1180=JSEFTSEP|10=098|8=FIXT.1.1|9=44|35=0|52=20111124-05:33:35.763|1180=JSEFTSEP|10=099|8=FIXT.1.1|9=44|35=0|52=20111124-05:33:37.763|1180=JSEFTSEP|10=101|8=FIXT.1.1|9=44|35=0|52=20111124-05:33:39.764|1180=JSEFTSEP|10=104|8=FIXT.1.1|9=44|35=0|52=20111124-05:33:41.763|1180=JSEFTSEP|10=096|8=FIXT.1.1|9=44|35=0|52=20111124-05:33:43.764|1180=JSEFTSEP|10=099|8=FIXT.1.1|9=44|35=0|52=20111124-05:33:45.763|1180=JSEFTSEP|10=100|8=FIXT.1.1|9=44|35=0|52=20111124-05:33:47.763|1180=JSEFTSEP|10=102|8=FIXT.1.1|9=44|35=0|52=20111124-05:33:49.763|1180=JSEFTSEP|10=104|8=FIXT.1.1|9=44|35=0|52=20111124-05:33:51.764|1180=JSEFTSEP|10=098|8=FIXT.1.1|9=44|35=0|52=20111124-05:33:53.763|1180=JSEFTSEP|10=099|8=FIXT.1.1|9=44|35=0|52=20111124-05:33:55.764|1180=JSEFTSEP|10=102|8=FIXT.1.1|9=44|35=0|52=20111124-05:33:57.763|1180=JSEFTSEP|10=103|8=FIXT.1.1|9=44|35=0|52=20111124-05:33:59.763|1180=JSEFTSEP|10=105|8=FIXT.1.1|9=44|35=0|52=20111124-05:34:01.763|1180=JSEFTSEP|10=093|8=FIXT.1.1|9=44|35=0|52=20111124-05:34:03.764|1180=JSEFTSEP|10=096|8=FIXT.1.1|9=44|35=0|52=20111124-05:34:05.763|1180=JSEFTSEP|10=097|8=FIXT.1.1|9=44|35=0|52=20111124-05:34:07.763|1180=JSEFTSEP|10=099|8=FIXT.1.1|9=44|35=0|52=20111124-05:34:09.764|1180=JSEFTSEP|10=102|8=FIXT.1.1|9=44|35=0|52=20111124-05:34:11.763|1180=JSEFTSEP|10=094|8=FIXT.1.1|9=44|35=0|52=20111124-05:34:13.764|1180=JSEFTSEP|10=097|8=FIXT.1.1|9=44|35=0|52=20111124-05:34:15.764|1180=JSEFTSEP|10=099|8=FIXT.1.1|9=44|35=0|52=20111124-05:34:17.764|1180=JSEFTSEP|10=101|8=FIXT.1.1|9=44|35=0|52=20111124-05:34:19.763|1180=JSEFTSEP|10=102|8=FIXT.1.1|9=44|35=0|52=20111124-05:34:21.764|1180=JSEFTSEP|10=096|8=FIXT.1.1|9=44|35=0|52=20111124-05:34:23.763|1180=JSEFTSEP|10=097|8=FIXT.1.1|9=44|35=0|52=20111124-05:34:25.763|1180=JSEFTSEP|10=099|8=FIXT.1.1|9=44|35=0|52=20111124-05:34:27.763|1180=JSEFTSEP|10=101|8=FIXT.1.1|9=44|35=0|52=20111124-05:34:29.764|1180=JSEFTSEP|10=104|8=FIXT.1.1|9=44|35=0|52=20111124-05:34:31.764|1180=JSEFTSEP|10=097|8=FIXT.1.1|9=44|35=0|52=20111124-05:34:33.763|1180=JSEFTSEP|10=098|8=FIXT.1.1|9=44|35=0|52=20111124-05:34:35.763|1180=JSEFTSEP|10=100|8=FIXT.1.1|9=44|35=0|52=20111124-05:34:37.763|1180=JSEFTSEP|10=102|8=FIXT.1.1|9=44|35=0|52=20111124-05:34:39.763|1180=JSEFTSEP|10=104|8=FIXT.1.1|9=44|35=0|52=20111124-05:34:41.763|1180=JSEFTSEP|10=097|8=FIXT.1.1|9=44|35=0|52=20111124-05:34:43.763|1180=JSEFTSEP|10=099|8=FIXT.1.1|9=44|35=0|52=20111124-05:34:45.763|1180=JSEFTSEP|10=101|8=FIXT.1.1|9=44|35=0|52=20111124-05:34:47.764|1180=JSEFTSEP|10=104|8=FIXT.1.1|9=44|35=0|52=20111124-05:34:49.763|1180=JSEFTSEP|10=105|8=FIXT.1.1|9=44|35=0|52=20111124-05:34:51.763|1180=JSEFTSEP|10=098|8=FIXT.1.1|9=44|35=0|52=20111124-05:34:53.763|1180=JSEFTSEP|10=100|8=FIXT.1.1|9=44|35=0|52=20111124-05:34:55.763|1180=JSEFTSEP|10=102|8=FIXT.1.1|9=44|35=0|52=20111124-05:34:57.763|1180=JSEFTSEP|10=104|8=FIXT.1.1|9=44|35=0|52=20111124-05:34:59.763|1180=JSEFTSEP|10=106|8=FIXT.1.1|9=44|35=0|52=20111124-05:35:01.764|1180=JSEFTSEP|10=095|8=FIXT.1.1|9=44|35=0|52=20111124-05:35:03.763|1180=JSEFTSEP|10=096|8=FIXT.1.1|9=44|35=0|52=20111124-05:35:05.764|1180=JSEFTSEP|10=099|8=FIXT.1.1|9=44|35=0|52=20111124-05:35:07.768|1180=JSEFTSEP|10=105|8=FIXT.1.1|9=44|35=0|52=20111124-05:35:09.764|1180=JSEFTSEP|10=103|8=FIXT.1.1|9=44|35=0|52=20111124-05:35:11.763|1180=JSEFTSEP|10=095|8=FIXT.1.1|9=44|35=0|52=20111124-05:35:13.763|1180=JSEFTSEP|10=097|8=FIXT.1.1|9=44|35=0|52=20111124-05:35:15.763|1180=JSEFTSEP|10=099|8=FIXT.1.1|9=44|35=0|52=20111124-05:35:17.764|1180=JSEFTSEP|10=102|8=FIXT.1.1|9=44|35=0|52=20111124-05:35:19.764|1180=JSEFTSEP|10=104|8=FIXT.1.1|9=44|35=0|52=20111124-05:35:21.763|1180=JSEFTSEP|10=096|8=FIXT.1.1|9=44|35=0|52=20111124-05:35:23.763|1180=JSEFTSEP|10=098|8=FIXT.1.1|9=44|35=0|52=20111124-05:35:25.763|1180=JSEFTSEP|10=100|8=FIXT.1.1|9=44|35=0|52=20111124-05:35:27.768|1180=JSEFTSEP|10=107|8=FIXT.1.1|9=44|35=0|52=20111124-05:35:29.764|1180=JSEFTSEP|10=105|8=FIXT.1.1|9=44|35=0|52=20111124-05:35:31.763|1180=JSEFTSEP|10=097|8=FIXT.1.1|9=44|35=0|52=20111124-05:35:33.763|1180=JSEFTSEP|10=099|8=FIXT.1.1|9=44|35=0|52=20111124-05:35:35.764|1180=JSEFTSEP|10=102|8=FIXT.1.1|9=44|35=0|52=20111124-05:35:37.763|1180=JSEFTSEP|10=103|8=FIXT.1.1|9=44|35=0|52=20111124-05:35:39.764|1180=JSEFTSEP|10=106|8=FIXT.1.1|9=44|35=0|52=20111124-05:35:41.763|1180=JSEFTSEP|10=098|8=FIXT.1.1|9=44|35=0|52=20111124-05:35:43.764|1180=JSEFTSEP|10=101|8=FIXT.1.1|9=44|35=0|52=20111124-05:35:45.763|1180=JSEFTSEP|10=102|8=FIXT.1.1|9=44|35=0|52=20111124-05:35:47.768|1180=JSEFTSEP|10=109|8=FIXT.1.1|9=44|35=0|52=20111124-05:35:49.763|1180=JSEFTSEP|10=106|8=FIXT.1.1|9=44|35=0|52=20111124-05:35:51.764|1180=JSEFTSEP|10=100|8=FIXT.1.1|9=44|35=0|52=20111124-05:35:53.763|1180=JSEFTSEP|10=101|8=FIXT.1.1|9=44|35=0|52=20111124-05:35:55.763|1180=JSEFTSEP|10=103|8=FIXT.1.1|9=44|35=0|52=20111124-05:35:57.764|1180=JSEFTSEP|10=106|8=FIXT.1.1|9=44|35=0|52=20111124-05:35:59.764|1180=JSEFTSEP|10=108|8=FIXT.1.1|9=44|35=0|52=20111124-05:36:01.763|1180=JSEFTSEP|10=095|8=FIXT.1.1|9=44|35=0|52=20111124-05:36:03.763|1180=JSEFTSEP|10=097|8=FIXT.1.1|9=44|35=0|52=20111124-05:36:05.763|1180=JSEFTSEP|10=099|8=FIXT.1.1|9=44|35=0|52=20111124-05:36:07.764|1180=JSEFTSEP|10=102|8=FIXT.1.1|9=44|35=0|52=20111124-05:36:09.763|1180=JSEFTSEP|10=103|8=FIXT.1.1|9=44|35=0|52=20111124-05:36:11.763|1180=JSEFTSEP|10=096|8=FIXT.1.1|9=44|35=0|52=20111124-05:36:13.763|1180=JSEFTSEP|10=098|8=FIXT.1.1|9=44|35=0|52=20111124-05:36:15.763|1180=JSEFTSEP|10=100|8=FIXT.1.1|9=44|35=0|52=20111124-05:36:17.764|1180=JSEFTSEP|10=103|8=FIXT.1.1|9=44|35=0|52=20111124-05:36:19.763|1180=JSEFTSEP|10=104|8=FIXT.1.1|9=44|35=0|52=20111124-05:36:21.763|1180=JSEFTSEP|10=097|8=FIXT.1.1|9=44|35=0|52=20111124-05:36:23.767|1180=JSEFTSEP|10=103|8=FIXT.1.1|9=44|35=0|52=20111124-05:36:25.763|1180=JSEFTSEP|10=101|8=FIXT.1.1|9=44|35=0|52=20111124-05:36:27.764|1180=JSEFTSEP|10=104|8=FIXT.1.1|9=44|35=0|52=20111124-05:36:29.764|1180=JSEFTSEP|10=106|8=FIXT.1.1|9=44|35=0|52=20111124-05:36:31.763|1180=JSEFTSEP|10=098|8=FIXT.1.1|9=44|35=0|52=20111124-05:36:33.763|1180=JSEFTSEP|10=100|8=FIXT.1.1|9=44|35=0|52=20111124-05:36:33.763|1180=JSEFTSEP|10=100|8=FIXT.1.1|9=44|35=0|52=20111124-05:36:35.763|1180=JSEFTSEP|10=102|8=FIXT.1.1|9=44|35=0|52=20111124-05:36:37.764|1180=JSEFTSEP|10=105|8=FIXT.1.1|9=44|35=0|52=20111124-05:36:39.763|1180=JSEFTSEP|10=106|8=FIXT.1.1|9=44|35=0|52=20111124-05:36:41.763|1180=JSEFTSEP|10=099|8=FIXT.1.1|9=44|35=0|52=20111124-05:36:43.764|1180=JSEFTSEP|10=102|8=FIXT.1.1|9=44|35=0|52=20111124-05:36:45.763|1180=JSEFTSEP|10=103|8=FIXT.1.1|9=44|35=0|52=20111124-05:36:47.763|1180=JSEFTSEP|10=105|8=FIXT.1.1|9=44|35=0|52=20111124-05:36:49.763|1180=JSEFTSEP|10=107|8=FIXT.1.1|9=44|35=0|52=20111124-05:36:51.763|1180=JSEFTSEP|10=100|8=FIXT.1.1|9=44|35=0|52=20111124-05:36:53.763|1180=JSEFTSEP|10=102|8=FIXT.1.1|9=44|35=0|52=20111124-05:36:55.764|1180=JSEFTSEP|10=105|8=FIXT.1.1|9=44|35=0|52=20111124-05:36:57.764|1180=JSEFTSEP|10=107|8=FIXT.1.1|9=44|35=0|52=20111124-05:36:59.763|1180=JSEFTSEP|10=108|8=FIXT.1.1|9=44|35=0|52=20111124-05:37:01.764|1180=JSEFTSEP|10=097|8=FIXT.1.1|9=44|35=0|52=20111124-05:37:03.764|1180=JSEFTSEP|10=099|8=FIXT.1.1|9=44|35=0|52=20111124-05:37:05.767|1180=JSEFTSEP|10=104|8=FIXT.1.1|9=44|35=0|52=20111124-05:37:07.768|1180=JSEFTSEP|10=107|8=FIXT.1.1|9=44|35=0|52=20111124-05:37:09.763|1180=JSEFTSEP|10=104|8=FIXT.1.1|9=44|35=0|52=20111124-05:37:11.763|1180=JSEFTSEP|10=097|8=FIXT.1.1|9=44|35=0|52=20111124-05:37:13.767|1180=JSEFTSEP|10=103|8=FIXT.1.1|9=44|35=0|52=20111124-05:37:15.763|1180=JSEFTSEP|10=101|8=FIXT.1.1|9=44|35=0|52=20111124-05:37:17.764|1180=JSEFTSEP|10=104|8=FIXT.1.1|9=44|35=0|52=20111124-05:37:19.763|1180=JSEFTSEP|10=105|8=FIXT.1.1|9=44|35=0|52=20111124-05:37:21.763|1180=JSEFTSEP|10=098|8=FIXT.1.1|9=44|35=0|52=20111124-05:37:23.763|1180=JSEFTSEP|10=100|8=FIXT.1.1|9=44|35=0|52=20111124-05:37:25.763|1180=JSEFTSEP|10=102|8=FIXT.1.1|9=44|35=0|52=20111124-05:37:27.763|1180=JSEFTSEP|10=104|8=FIXT.1.1|9=44|35=0|52=20111124-05:37:29.763|1180=JSEFTSEP|10=106|8=FIXT.1.1|9=44|35=0|52=20111124-05:37:31.764|1180=JSEFTSEP|10=100|8=FIXT.1.1|9=44|35=0|52=20111124-05:37:33.764|1180=JSEFTSEP|10=102|8=FIXT.1.1|9=44|35=0|52=20111124-05:37:35.763|1180=JSEFTSEP|10=103|8=FIXT.1.1|9=44|35=0|52=20111124-05:37:37.763|1180=JSEFTSEP|10=105|8=FIXT.1.1|9=44|35=0|52=20111124-05:37:39.763|1180=JSEFTSEP|10=107|8=FIXT.1.1|9=44|35=0|52=20111124-05:37:41.763|1180=JSEFTSEP|10=100|8=FIXT.1.1|9=44|35=0|52=20111124-05:37:43.764|1180=JSEFTSEP|10=103|8=FIXT.1.1|9=44|35=0|52=20111124-05:37:45.763|1180=JSEFTSEP|10=104|8=FIXT.1.1|9=44|35=0|52=20111124-05:37:47.763|1180=JSEFTSEP|10=106|8=FIXT.1.1|9=44|35=0|52=20111124-05:37:49.763|1180=JSEFTSEP|10=108|8=FIXT.1.1|9=44|35=0|52=20111124-05:37:51.763|1180=JSEFTSEP|10=101|8=FIXT.1.1|9=44|35=0|52=20111124-05:37:53.763|1180=JSEFTSEP|10=103|8=FIXT.1.1|9=44|35=0|52=20111124-05:37:55.767|1180=JSEFTSEP|10=109|8=FIXT.1.1|9=44|35=0|52=20111124-05:37:57.763|1180=JSEFTSEP|10=107|8=FIXT.1.1|9=44|35=0|52=20111124-05:37:59.764|1180=JSEFTSEP|10=110|8=FIXT.1.1|9=44|35=0|52=20111124-05:38:01.763|1180=JSEFTSEP|10=097|8=FIXT.1.1|9=44|35=0|52=20111124-05:38:03.764|1180=JSEFTSEP|10=100|8=FIXT.1.1|9=44|35=0|52=20111124-05:38:05.767|1180=JSEFTSEP|10=105|8=FIXT.1.1|9=44|35=0|52=20111124-05:38:07.763|1180=JSEFTSEP|10=103|8=FIXT.1.1|9=44|35=0|52=20111124-05:38:09.763|1180=JSEFTSEP|10=105|8=FIXT.1.1|9=44|35=0|52=20111124-05:38:11.763|1180=JSEFTSEP|10=098|8=FIXT.1.1|9=44|35=0|52=20111124-05:38:13.764|1180=JSEFTSEP|10=101|8=FIXT.1.1|9=44|35=0|52=20111124-05:38:15.763|1180=JSEFTSEP|10=102|8=FIXT.1.1|9=44|35=0|52=20111124-05:38:17.763|1180=JSEFTSEP|10=104|8=FIXT.1.1|9=44|35=0|52=20111124-05:38:19.763|1180=JSEFTSEP|10=106|8=FIXT.1.1|9=44|35=0|52=20111124-05:38:21.763|1180=JSEFTSEP|10=099|8=FIXT.1.1|9=44|35=0|52=20111124-05:38:23.763|1180=JSEFTSEP|10=101|8=FIXT.1.1|9=44|35=0|52=20111124-05:38:25.763|1180=JSEFTSEP|10=103|8=FIXT.1.1|9=44|35=0|52=20111124-05:38:27.763|1180=JSEFTSEP|10=105|8=FIXT.1.1|9=44|35=0|52=20111124-05:38:29.763|1180=JSEFTSEP|10=107|8=FIXT.1.1|9=44|35=0|52=20111124-05:38:31.764|1180=JSEFTSEP|10=101|8=FIXT.1.1|9=44|35=0|52=20111124-05:38:33.767|1180=JSEFTSEP|10=106|8=FIXT.1.1|9=44|35=0|52=20111124-05:38:35.763|1180=JSEFTSEP|10=104|8=FIXT.1.1|9=44|35=0|52=20111124-05:38:37.764|1180=JSEFTSEP|10=107|8=FIXT.1.1|9=44|35=0|52=20111124-05:38:39.764|1180=JSEFTSEP|10=109|8=FIXT.1.1|9=44|35=0|52=20111124-05:38:41.763|1180=JSEFTSEP|10=101|8=FIXT.1.1|9=44|35=0|52=20111124-05:38:43.763|1180=JSEFTSEP|10=103|8=FIXT.1.1|9=44|35=0|52=20111124-05:38:45.763|1180=JSEFTSEP|10=105|8=FIXT.1.1|9=44|35=0|52=20111124-05:38:47.763|1180=JSEFTSEP|10=107|8=FIXT.1.1|9=44|35=0|52=20111124-05:38:49.764|1180=JSEFTSEP|10=110|8=FIXT.1.1|9=44|35=0|52=20111124-05:38:51.763|1180=JSEFTSEP|10=102|8=FIXT.1.1|9=44|35=0|52=20111124-05:38:53.763|1180=JSEFTSEP|10=104|8=FIXT.1.1|9=44|35=0|52=20111124-05:38:55.764|1180=JSEFTSEP|10=107|8=FIXT.1.1|9=44|35=0|52=20111124-05:38:57.763|1180=JSEFTSEP|10=108|8=FIXT.1.1|9=44|35=0|52=20111124-05:38:59.764|1180=JSEFTSEP|10=111|8=FIXT.1.1|9=44|35=0|52=20111124-05:39:01.763|1180=JSEFTSEP|10=098|8=FIXT.1.1|9=44|35=0|52=20111124-05:39:03.764|1180=JSEFTSEP|10=101|8=FIXT.1.1|9=44|35=0|52=20111124-05:39:05.764|1180=JSEFTSEP|10=103|8=FIXT.1.1|9=44|35=0|52=20111124-05:39:07.764|1180=JSEFTSEP|10=105|8=FIXT.1.1|9=44|35=0|52=20111124-05:39:09.767|1180=JSEFTSEP|10=110|8=FIXT.1.1|9=44|35=0|52=20111124-05:39:11.763|1180=JSEFTSEP|10=099|8=FIXT.1.1|9=44|35=0|52=20111124-05:39:13.763|1180=JSEFTSEP|10=101|8=FIXT.1.1|9=44|35=0|52=20111124-05:39:15.763|1180=JSEFTSEP|10=103|8=FIXT.1.1|9=44|35=0|52=20111124-05:39:17.764|1180=JSEFTSEP|10=106|8=FIXT.1.1|9=44|35=0|52=20111124-05:39:19.763|1180=JSEFTSEP|10=107|8=FIXT.1.1|9=44|35=0|52=20111124-05:39:21.763|1180=JSEFTSEP|10=100|8=FIXT.1.1|9=44|35=0|52=20111124-05:39:23.763|1180=JSEFTSEP|10=102|8=FIXT.1.1|9=44|35=0|52=20111124-05:39:25.767|1180=JSEFTSEP|10=108|8=FIXT.1.1|9=44|35=0|52=20111124-05:39:27.764|1180=JSEFTSEP|10=107|8=FIXT.1.1|9=44|35=0|52=20111124-05:39:29.764|1180=JSEFTSEP|10=109|8=FIXT.1.1|9=44|35=0|52=20111124-05:39:31.764|1180=JSEFTSEP|10=102|8=FIXT.1.1|9=44|35=0|52=20111124-05:39:33.764|1180=JSEFTSEP|10=104|8=FIXT.1.1|9=44|35=0|52=20111124-05:39:35.763|1180=JSEFTSEP|10=105|8=FIXT.1.1|9=44|35=0|52=20111124-05:39:37.764|1180=JSEFTSEP|10=108|8=FIXT.1.1|9=44|35=0|52=20111124-05:39:39.764|1180=JSEFTSEP|10=110|8=FIXT.1.1|9=44|35=0|52=20111124-05:39:41.764|1180=JSEFTSEP|10=103|8=FIXT.1.1|9=44|35=0|52=20111124-05:39:43.763|1180=JSEFTSEP|10=104|8=FIXT.1.1|9=44|35=0|52=20111124-05:39:45.763|1180=JSEFTSEP|10=106|8=FIXT.1.1|9=44|35=0|52=20111124-05:39:47.763|1180=JSEFTSEP|10=108|8=FIXT.1.1|9=44|35=0|52=20111124-05:39:49.763|1180=JSEFTSEP|10=110|8=FIXT.1.1|9=44|35=0|52=20111124-05:39:51.763|1180=JSEFTSEP|10=103|8=FIXT.1.1|9=44|35=0|52=20111124-05:39:53.764|1180=JSEFTSEP|10=106|8=FIXT.1.1|9=44|35=0|52=20111124-05:39:55.764|1180=JSEFTSEP|10=108|8=FIXT.1.1|9=44|35=0|52=20111124-05:39:57.763|1180=JSEFTSEP|10=109|8=FIXT.1.1|9=44|35=0|52=20111124-05:39:59.763|1180=JSEFTSEP|10=111|8=FIXT.1.1|9=44|35=0|52=20111124-05:40:01.763|1180=JSEFTSEP|10=090|8=FIXT.1.1|9=44|35=0|52=20111124-05:40:03.764|1180=JSEFTSEP|10=093|8=FIXT.1.1|9=44|35=0|52=20111124-05:40:05.763|1180=JSEFTSEP|10=094|8=FIXT.1.1|9=44|35=0|52=20111124-05:40:07.763|1180=JSEFTSEP|10=096|8=FIXT.1.1|9=44|35=0|52=20111124-05:40:09.763|1180=JSEFTSEP|10=098|8=FIXT.1.1|9=44|35=0|52=20111124-05:40:11.764|1180=JSEFTSEP|10=092|8=FIXT.1.1|9=44|35=0|52=20111124-05:40:13.764|1180=JSEFTSEP|10=094|8=FIXT.1.1|9=44|35=0|52=20111124-05:40:15.763|1180=JSEFTSEP|10=095|8=FIXT.1.1|9=44|35=0|52=20111124-05:40:17.763|1180=JSEFTSEP|10=097|8=FIXT.1.1|9=44|35=0|52=20111124-05:40:19.764|1180=JSEFTSEP|10=100|8=FIXT.1.1|9=44|35=0|52=20111124-05:40:21.763|1180=JSEFTSEP|10=092|8=FIXT.1.1|9=44|35=0|52=20111124-05:40:23.763|1180=JSEFTSEP|10=094|8=FIXT.1.1|9=44|35=0|52=20111124-05:40:25.763|1180=JSEFTSEP|10=096|8=FIXT.1.1|9=44|35=0|52=20111124-05:40:27.764|1180=JSEFTSEP|10=099|8=FIXT.1.1|9=44|35=0|52=20111124-05:40:29.764|1180=JSEFTSEP|10=101|8=FIXT.1.1|9=44|35=0|52=20111124-05:40:31.767|1180=JSEFTSEP|10=097|8=FIXT.1.1|9=44|35=0|52=20111124-05:40:33.764|1180=JSEFTSEP|10=096|8=FIXT.1.1|9=44|35=0|52=20111124-05:40:35.763|1180=JSEFTSEP|10=097|8=FIXT.1.1|9=44|35=0|52=20111124-05:40:37.763|1180=JSEFTSEP|10=099|8=FIXT.1.1|9=44|35=0|52=20111124-05:40:39.764|1180=JSEFTSEP|10=102|8=FIXT.1.1|9=44|35=0|52=20111124-05:40:41.763|1180=JSEFTSEP|10=094|8=FIXT.1.1|9=44|35=0|52=20111124-05:40:43.764|1180=JSEFTSEP|10=097|8=FIXT.1.1|9=44|35=0|52=20111124-05:40:45.763|1180=JSEFTSEP|10=098|8=FIXT.1.1|9=44|35=0|52=20111124-05:40:47.763|1180=JSEFTSEP|10=100|8=FIXT.1.1|9=44|35=0|52=20111124-05:40:49.763|1180=JSEFTSEP|10=102|8=FIXT.1.1|9=44|35=0|52=20111124-05:40:51.763|1180=JSEFTSEP|10=095|8=FIXT.1.1|9=44|35=0|52=20111124-05:40:53.763|1180=JSEFTSEP|10=097|8=FIXT.1.1|9=44|35=0|52=20111124-05:40:55.763|1180=JSEFTSEP|10=099|8=FIXT.1.1|9=44|35=0|52=20111124-05:40:57.764|1180=JSEFTSEP|10=102|8=FIXT.1.1|9=44|35=0|52=20111124-05:40:59.764|1180=JSEFTSEP|10=104|8=FIXT.1.1|9=44|35=0|52=20111124-05:41:01.763|1180=JSEFTSEP|10=091|8=FIXT.1.1|9=44|35=0|52=20111124-05:41:03.763|1180=JSEFTSEP|10=093|8=FIXT.1.1|9=44|35=0|52=20111124-05:41:05.763|1180=JSEFTSEP|10=095|8=FIXT.1.1|9=44|35=0|52=20111124-05:41:07.764|1180=JSEFTSEP|10=098|8=FIXT.1.1|9=44|35=0|52=20111124-05:41:09.764|1180=JSEFTSEP|10=100|8=FIXT.1.1|9=44|35=0|52=20111124-05:41:09.764|1180=JSEFTSEP|10=100|8=FIXT.1.1|9=44|35=0|52=20111124-05:41:11.763|1180=JSEFTSEP|10=092|8=FIXT.1.1|9=44|35=0|52=20111124-05:41:13.763|1180=JSEFTSEP|10=094|8=FIXT.1.1|9=44|35=0|52=20111124-05:41:15.763|1180=JSEFTSEP|10=096|8=FIXT.1.1|9=44|35=0|52=20111124-05:41:17.763|1180=JSEFTSEP|10=098|8=FIXT.1.1|9=44|35=0|52=20111124-05:41:19.763|1180=JSEFTSEP|10=100|8=FIXT.1.1|9=44|35=0|52=20111124-05:41:21.764|1180=JSEFTSEP|10=094|8=FIXT.1.1|9=44|35=0|52=20111124-05:41:23.763|1180=JSEFTSEP|10=095|8=FIXT.1.1|9=44|35=0|52=20111124-05:41:25.763|1180=JSEFTSEP|10=097|8=FIXT.1.1|9=44|35=0|52=20111124-05:41:27.767|1180=JSEFTSEP|10=103|8=FIXT.1.1|9=44|35=0|52=20111124-05:41:29.764|1180=JSEFTSEP|10=102|8=FIXT.1.1|9=44|35=0|52=20111124-05:41:31.763|1180=JSEFTSEP|10=094|8=FIXT.1.1|9=44|35=0|52=20111124-05:41:33.763|1180=JSEFTSEP|10=096|8=FIXT.1.1|9=44|35=0|52=20111124-05:41:35.763|1180=JSEFTSEP|10=098|8=FIXT.1.1|9=44|35=0|52=20111124-05:41:37.763|1180=JSEFTSEP|10=100|8=FIXT.1.1|9=44|35=0|52=20111124-05:41:39.763|1180=JSEFTSEP|10=102|8=FIXT.1.1|9=44|35=0|52=20111124-05:41:41.763|1180=JSEFTSEP|10=095|8=FIXT.1.1|9=44|35=0|52=20111124-05:41:43.763|1180=JSEFTSEP|10=097|8=FIXT.1.1|9=44|35=0|52=20111124-05:41:45.763|1180=JSEFTSEP|10=099|8=FIXT.1.1|9=44|35=0|52=20111124-05:41:47.763|1180=JSEFTSEP|10=101|8=FIXT.1.1|9=44|35=0|52=20111124-05:41:49.764|1180=JSEFTSEP|10=104|8=FIXT.1.1|9=44|35=0|52=20111124-05:41:51.764|1180=JSEFTSEP|10=097|8=FIXT.1.1|9=44|35=0|52=20111124-05:41:53.764|1180=JSEFTSEP|10=099|8=FIXT.1.1|9=44|35=0|52=20111124-05:41:55.763|1180=JSEFTSEP|10=100|8=FIXT.1.1|9=44|35=0|52=20111124-05:41:57.763|1180=JSEFTSEP|10=102|8=FIXT.1.1|9=44|35=0|52=20111124-05:41:59.763|1180=JSEFTSEP|10=104|8=FIXT.1.1|9=44|35=0|52=20111124-05:42:01.764|1180=JSEFTSEP|10=093|8=FIXT.1.1|9=44|35=0|52=20111124-05:42:03.763|1180=JSEFTSEP|10=094|8=FIXT.1.1|9=44|35=0|52=20111124-05:42:05.763|1180=JSEFTSEP|10=096|8=FIXT.1.1|9=44|35=0|52=20111124-05:42:07.763|1180=JSEFTSEP|10=098|8=FIXT.1.1|9=44|35=0|52=20111124-05:42:09.764|1180=JSEFTSEP|10=101|8=FIXT.1.1|9=44|35=0|52=20111124-05:42:11.764|1180=JSEFTSEP|10=094|8=FIXT.1.1|9=44|35=0|52=20111124-05:42:13.763|1180=JSEFTSEP|10=095|8=FIXT.1.1|9=44|35=0|52=20111124-05:42:15.763|1180=JSEFTSEP|10=097|8=FIXT.1.1|9=44|35=0|52=20111124-05:42:17.763|1180=JSEFTSEP|10=099|8=FIXT.1.1|9=44|35=0|52=20111124-05:42:19.763|1180=JSEFTSEP|10=101|8=FIXT.1.1|9=44|35=0|52=20111124-05:42:21.763|1180=JSEFTSEP|10=094|8=FIXT.1.1|9=44|35=0|52=20111124-05:42:23.764|1180=JSEFTSEP|10=097|8=FIXT.1.1|9=44|35=0|52=20111124-05:42:25.764|1180=JSEFTSEP|10=099|8=FIXT.1.1|9=44|35=0|52=20111124-05:42:27.763|1180=JSEFTSEP|10=100|8=FIXT.1.1|9=44|35=0|52=20111124-05:42:29.763|1180=JSEFTSEP|10=102|8=FIXT.1.1|9=44|35=0|52=20111124-05:42:31.764|1180=JSEFTSEP|10=096|8=FIXT.1.1|9=44|35=0|52=20111124-05:42:33.764|1180=JSEFTSEP|10=098|8=FIXT.1.1|9=44|35=0|52=20111124-05:42:35.763|1180=JSEFTSEP|10=099|8=FIXT.1.1|9=44|35=0|52=20111124-05:42:37.763|1180=JSEFTSEP|10=101|8=FIXT.1.1|9=44|35=0|52=20111124-05:42:39.763|1180=JSEFTSEP|10=103|8=FIXT.1.1|9=44|35=0|52=20111124-05:42:41.764|1180=JSEFTSEP|10=097|8=FIXT.1.1|9=44|35=0|52=20111124-05:42:43.764|1180=JSEFTSEP|10=099|8=FIXT.1.1|9=44|35=0|52=20111124-05:42:45.764|1180=JSEFTSEP|10=101|8=FIXT.1.1|9=44|35=0|52=20111124-05:42:47.764|1180=JSEFTSEP|10=103|8=FIXT.1.1|9=44|35=0|52=20111124-05:42:49.764|1180=JSEFTSEP|10=105|8=FIXT.1.1|9=44|35=0|52=20111124-05:42:51.767|1180=JSEFTSEP|10=101|8=FIXT.1.1|9=44|35=0|52=20111124-05:42:53.767|1180=JSEFTSEP|10=103|8=FIXT.1.1|9=44|35=0|52=20111124-05:42:55.763|1180=JSEFTSEP|10=101|8=FIXT.1.1|9=44|35=0|52=20111124-05:42:57.763|1180=JSEFTSEP|10=103|8=FIXT.1.1|9=44|35=0|52=20111124-05:42:59.763|1180=JSEFTSEP|10=105|8=FIXT.1.1|9=44|35=0|52=20111124-05:43:01.764|1180=JSEFTSEP|10=094|8=FIXT.1.1|9=44|35=0|52=20111124-05:43:03.767|1180=JSEFTSEP|10=099|8=FIXT.1.1|9=44|35=0|52=20111124-05:43:05.763|1180=JSEFTSEP|10=097|8=FIXT.1.1|9=44|35=0|52=20111124-05:43:07.763|1180=JSEFTSEP|10=099|8=FIXT.1.1|9=44|35=0|52=20111124-05:43:09.763|1180=JSEFTSEP|10=101|8=FIXT.1.1|9=44|35=0|52=20111124-05:43:11.764|1180=JSEFTSEP|10=095|8=FIXT.1.1|9=44|35=0|52=20111124-05:43:13.763|1180=JSEFTSEP|10=096|8=FIXT.1.1|9=44|35=0|52=20111124-05:43:15.764|1180=JSEFTSEP|10=099|8=FIXT.1.1|9=44|35=0|52=20111124-05:43:17.764|1180=JSEFTSEP|10=101|8=FIXT.1.1|9=44|35=0|52=20111124-05:43:19.763|1180=JSEFTSEP|10=102|8=FIXT.1.1|9=44|35=0|52=20111124-05:43:21.764|1180=JSEFTSEP|10=096|8=FIXT.1.1|9=44|35=0|52=20111124-05:43:23.763|1180=JSEFTSEP|10=097|8=FIXT.1.1|9=44|35=0|52=20111124-05:43:25.763|1180=JSEFTSEP|10=099|8=FIXT.1.1|9=44|35=0|52=20111124-05:43:27.763|1180=JSEFTSEP|10=101|8=FIXT.1.1|9=44|35=0|52=20111124-05:43:29.764|1180=JSEFTSEP|10=104|8=FIXT.1.1|9=44|35=0|52=20111124-05:43:31.763|1180=JSEFTSEP|10=096|8=FIXT.1.1|9=44|35=0|52=20111124-05:43:33.763|1180=JSEFTSEP|10=098|8=FIXT.1.1|9=44|35=0|52=20111124-05:43:35.767|1180=JSEFTSEP|10=104|8=FIXT.1.1|9=44|35=0|52=20111124-05:43:37.764|1180=JSEFTSEP|10=103|8=FIXT.1.1|9=44|35=0|52=20111124-05:43:39.763|1180=JSEFTSEP|10=104|8=FIXT.1.1|9=44|35=0|52=20111124-05:43:41.764|1180=JSEFTSEP|10=098|8=FIXT.1.1|9=44|35=0|52=20111124-05:43:43.764|1180=JSEFTSEP|10=100|8=FIXT.1.1|9=44|35=0|52=20111124-05:43:45.763|1180=JSEFTSEP|10=101|8=FIXT.1.1|9=44|35=0|52=20111124-05:43:47.764|1180=JSEFTSEP|10=104|8=FIXT.1.1|9=44|35=0|52=20111124-05:43:49.763|1180=JSEFTSEP|10=105|8=FIXT.1.1|9=44|35=0|52=20111124-05:43:51.764|1180=JSEFTSEP|10=099|8=FIXT.1.1|9=44|35=0|52=20111124-05:43:53.763|1180=JSEFTSEP|10=100|8=FIXT.1.1|9=44|35=0|52=20111124-05:43:55.763|1180=JSEFTSEP|10=102|8=FIXT.1.1|9=44|35=0|52=20111124-05:43:57.764|1180=JSEFTSEP|10=105|8=FIXT.1.1|9=44|35=0|52=20111124-05:43:59.767|1180=JSEFTSEP|10=110|8=FIXT.1.1|9=44|35=0|52=20111124-05:44:01.763|1180=JSEFTSEP|10=094|8=FIXT.1.1|9=44|35=0|52=20111124-05:44:03.763|1180=JSEFTSEP|10=096|8=FIXT.1.1|9=44|35=0|52=20111124-05:44:05.764|1180=JSEFTSEP|10=099|8=FIXT.1.1|9=44|35=0|52=20111124-05:44:07.763|1180=JSEFTSEP|10=100|8=FIXT.1.1|9=44|35=0|52=20111124-05:44:09.763|1180=JSEFTSEP|10=102|8=FIXT.1.1|9=44|35=0|52=20111124-05:44:11.764|1180=JSEFTSEP|10=096|8=FIXT.1.1|9=44|35=0|52=20111124-05:44:13.763|1180=JSEFTSEP|10=097|8=FIXT.1.1|9=44|35=0|52=20111124-05:44:15.763|1180=JSEFTSEP|10=099|8=FIXT.1.1|9=44|35=0|52=20111124-05:44:17.764|1180=JSEFTSEP|10=102|8=FIXT.1.1|9=44|35=0|52=20111124-05:44:19.764|1180=JSEFTSEP|10=104|8=FIXT.1.1|9=44|35=0|52=20111124-05:44:21.763|1180=JSEFTSEP|10=096|8=FIXT.1.1|9=44|35=0|52=20111124-05:44:23.764|1180=JSEFTSEP|10=099|8=FIXT.1.1|9=44|35=0|52=20111124-05:44:25.763|1180=JSEFTSEP|10=100|8=FIXT.1.1|9=44|35=0|52=20111124-05:44:27.767|1180=JSEFTSEP|10=106|8=FIXT.1.1|9=44|35=0|52=20111124-05:44:29.763|1180=JSEFTSEP|10=104|8=FIXT.1.1|9=44|35=0|52=20111124-05:44:31.764|1180=JSEFTSEP|10=098|8=FIXT.1.1|9=44|35=0|52=20111124-05:44:33.763|1180=JSEFTSEP|10=099|8=FIXT.1.1|9=44|35=0|52=20111124-05:44:35.763|1180=JSEFTSEP|10=101|8=FIXT.1.1|9=44|35=0|52=20111124-05:44:37.763|1180=JSEFTSEP|10=103|8=FIXT.1.1|9=44|35=0|52=20111124-05:44:39.763|1180=JSEFTSEP|10=105|8=FIXT.1.1|9=44|35=0|52=20111124-05:44:41.763|1180=JSEFTSEP|10=098|8=FIXT.1.1|9=44|35=0|52=20111124-05:44:43.764|1180=JSEFTSEP|10=101|8=FIXT.1.1|9=44|35=0|52=20111124-05:44:45.763|1180=JSEFTSEP|10=102|8=FIXT.1.1|9=44|35=0|52=20111124-05:44:47.763|1180=JSEFTSEP|10=104|8=FIXT.1.1|9=44|35=0|52=20111124-05:44:49.763|1180=JSEFTSEP|10=106|8=FIXT.1.1|9=44|35=0|52=20111124-05:44:51.763|1180=JSEFTSEP|10=099|8=FIXT.1.1|9=44|35=0|52=20111124-05:44:53.764|1180=JSEFTSEP|10=102|8=FIXT.1.1|9=44|35=0|52=20111124-05:44:55.763|1180=JSEFTSEP|10=103|8=FIXT.1.1|9=44|35=0|52=20111124-05:44:57.763|1180=JSEFTSEP|10=105|8=FIXT.1.1|9=44|35=0|52=20111124-05:44:59.763|1180=JSEFTSEP|10=107|8=FIXT.1.1|9=44|35=0|52=20111124-05:45:01.763|1180=JSEFTSEP|10=095|8=FIXT.1.1|9=44|35=0|52=20111124-05:45:03.763|1180=JSEFTSEP|10=097|8=FIXT.1.1|9=44|35=0|52=20111124-05:45:05.763|1180=JSEFTSEP|10=099|8=FIXT.1.1|9=44|35=0|52=20111124-05:45:07.764|1180=JSEFTSEP|10=102|8=FIXT.1.1|9=44|35=0|52=20111124-05:45:09.764|1180=JSEFTSEP|10=104|8=FIXT.1.1|9=44|35=0|52=20111124-05:45:11.763|1180=JSEFTSEP|10=096|8=FIXT.1.1|9=44|35=0|52=20111124-05:45:13.763|1180=JSEFTSEP|10=098|8=FIXT.1.1|9=44|35=0|52=20111124-05:45:15.764|1180=JSEFTSEP|10=101|8=FIXT.1.1|9=44|35=0|52=20111124-05:45:17.763|1180=JSEFTSEP|10=102|8=FIXT.1.1|9=44|35=0|52=20111124-05:45:19.764|1180=JSEFTSEP|10=105|8=FIXT.1.1|9=44|35=0|52=20111124-05:45:21.764|1180=JSEFTSEP|10=098|8=FIXT.1.1|9=44|35=0|52=20111124-05:45:23.763|1180=JSEFTSEP|10=099|8=FIXT.1.1|9=44|35=0|52=20111124-05:45:25.763|1180=JSEFTSEP|10=101|8=FIXT.1.1|9=44|35=0|52=20111124-05:45:27.763|1180=JSEFTSEP|10=103|8=FIXT.1.1|9=44|35=0|52=20111124-05:45:29.763|1180=JSEFTSEP|10=105|8=FIXT.1.1|9=44|35=0|52=20111124-05:45:31.763|1180=JSEFTSEP|10=098|8=FIXT.1.1|9=44|35=0|52=20111124-05:45:33.764|1180=JSEFTSEP|10=101|8=FIXT.1.1|9=44|35=0|52=20111124-05:45:35.764|1180=JSEFTSEP|10=103|8=FIXT.1.1|9=44|35=0|52=20111124-05:45:37.763|1180=JSEFTSEP|10=104|8=FIXT.1.1|9=44|35=0|52=20111124-05:45:39.763|1180=JSEFTSEP|10=106|8=FIXT.1.1|9=44|35=0|52=20111124-05:45:41.764|1180=JSEFTSEP|10=100|8=FIXT.1.1|9=44|35=0|52=20111124-05:45:43.763|1180=JSEFTSEP|10=101|8=FIXT.1.1|9=44|35=0|52=20111124-05:45:45.764|1180=JSEFTSEP|10=104|8=FIXT.1.1|9=44|35=0|52=20111124-05:45:45.764|1180=JSEFTSEP|10=104|8=FIXT.1.1|9=44|35=0|52=20111124-05:45:47.764|1180=JSEFTSEP|10=106|8=FIXT.1.1|9=44|35=0|52=20111124-05:45:49.764|1180=JSEFTSEP|10=108|8=FIXT.1.1|9=44|35=0|52=20111124-05:45:51.763|1180=JSEFTSEP|10=100|8=FIXT.1.1|9=44|35=0|52=20111124-05:45:53.763|1180=JSEFTSEP|10=102|8=FIXT.1.1|9=44|35=0|52=20111124-05:45:55.763|1180=JSEFTSEP|10=104|8=FIXT.1.1|9=44|35=0|52=20111124-05:45:57.763|1180=JSEFTSEP|10=106|8=FIXT.1.1|9=44|35=0|52=20111124-05:45:59.764|1180=JSEFTSEP|10=109|8=FIXT.1.1|9=44|35=0|52=20111124-05:46:01.764|1180=JSEFTSEP|10=097|8=FIXT.1.1|9=44|35=0|52=20111124-05:46:03.763|1180=JSEFTSEP|10=098|8=FIXT.1.1|9=44|35=0|52=20111124-05:46:05.763|1180=JSEFTSEP|10=100|8=FIXT.1.1|9=44|35=0|52=20111124-05:46:07.763|1180=JSEFTSEP|10=102|8=FIXT.1.1|9=44|35=0|52=20111124-05:46:09.764|1180=JSEFTSEP|10=105|8=FIXT.1.1|9=44|35=0|52=20111124-05:46:11.764|1180=JSEFTSEP|10=098|8=FIXT.1.1|9=44|35=0|52=20111124-05:46:13.763|1180=JSEFTSEP|10=099|8=FIXT.1.1|9=44|35=0|52=20111124-05:46:15.763|1180=JSEFTSEP|10=101|8=FIXT.1.1|9=44|35=0|52=20111124-05:46:17.764|1180=JSEFTSEP|10=104|8=FIXT.1.1|9=44|35=0|52=20111124-05:46:19.768|1180=JSEFTSEP|10=110|8=FIXT.1.1|9=44|35=0|52=20111124-05:46:21.764|1180=JSEFTSEP|10=099|8=FIXT.1.1|9=44|35=0|52=20111124-05:46:23.764|1180=JSEFTSEP|10=101|8=FIXT.1.1|9=44|35=0|52=20111124-05:46:25.764|1180=JSEFTSEP|10=103|8=FIXT.1.1|9=44|35=0|52=20111124-05:46:27.764|1180=JSEFTSEP|10=105|8=FIXT.1.1|9=44|35=0|52=20111124-05:46:29.764|1180=JSEFTSEP|10=107|8=FIXT.1.1|9=44|35=0|52=20111124-05:46:31.763|1180=JSEFTSEP|10=099|8=FIXT.1.1|9=44|35=0|52=20111124-05:46:33.763|1180=JSEFTSEP|10=101|8=FIXT.1.1|9=44|35=0|52=20111124-05:46:35.764|1180=JSEFTSEP|10=104|8=FIXT.1.1|9=44|35=0|52=20111124-05:46:37.763|1180=JSEFTSEP|10=105|8=FIXT.1.1|9=44|35=0|52=20111124-05:46:39.763|1180=JSEFTSEP|10=107|8=FIXT.1.1|9=44|35=0|52=20111124-05:46:41.764|1180=JSEFTSEP|10=101|8=FIXT.1.1|9=44|35=0|52=20111124-05:46:43.763|1180=JSEFTSEP|10=102|8=FIXT.1.1|9=44|35=0|52=20111124-05:46:45.763|1180=JSEFTSEP|10=104|8=FIXT.1.1|9=44|35=0|52=20111124-05:46:47.764|1180=JSEFTSEP|10=107|8=FIXT.1.1|9=44|35=0|52=20111124-05:46:49.763|1180=JSEFTSEP|10=108|8=FIXT.1.1|9=44|35=0|52=20111124-05:46:51.763|1180=JSEFTSEP|10=101|8=FIXT.1.1|9=44|35=0|52=20111124-05:46:53.763|1180=JSEFTSEP|10=103|8=FIXT.1.1|9=44|35=0|52=20111124-05:46:55.763|1180=JSEFTSEP|10=105|8=FIXT.1.1|9=44|35=0|52=20111124-05:46:57.763|1180=JSEFTSEP|10=107|8=FIXT.1.1|9=44|35=0|52=20111124-05:46:59.763|1180=JSEFTSEP|10=109|8=FIXT.1.1|9=44|35=0|52=20111124-05:47:01.763|1180=JSEFTSEP|10=097|8=FIXT.1.1|9=44|35=0|52=20111124-05:47:03.763|1180=JSEFTSEP|10=099|8=FIXT.1.1|9=44|35=0|52=20111124-05:47:05.763|1180=JSEFTSEP|10=101|8=FIXT.1.1|9=44|35=0|52=20111124-05:47:07.764|1180=JSEFTSEP|10=104|8=FIXT.1.1|9=44|35=0|52=20111124-05:47:09.764|1180=JSEFTSEP|10=106|8=FIXT.1.1|9=44|35=0|52=20111124-05:47:11.764|1180=JSEFTSEP|10=099|8=FIXT.1.1|9=44|35=0|52=20111124-05:47:13.763|1180=JSEFTSEP|10=100|8=FIXT.1.1|9=44|35=0|52=20111124-05:47:15.763|1180=JSEFTSEP|10=102|8=FIXT.1.1|9=44|35=0|52=20111124-05:47:17.763|1180=JSEFTSEP|10=104|8=FIXT.1.1|9=44|35=0|52=20111124-05:47:19.767|1180=JSEFTSEP|10=110|8=FIXT.1.1|9=44|35=0|52=20111124-05:47:21.763|1180=JSEFTSEP|10=099|8=FIXT.1.1|9=44|35=0|52=20111124-05:47:23.763|1180=JSEFTSEP|10=101|8=FIXT.1.1|9=44|35=0|52=20111124-05:47:25.763|1180=JSEFTSEP|10=103|8=FIXT.1.1|9=44|35=0|52=20111124-05:47:27.764|1180=JSEFTSEP|10=106|8=FIXT.1.1|9=44|35=0|52=20111124-05:47:29.763|1180=JSEFTSEP|10=107|8=FIXT.1.1|9=44|35=0|52=20111124-05:47:31.763|1180=JSEFTSEP|10=100|8=FIXT.1.1|9=44|35=0|52=20111124-05:47:33.763|1180=JSEFTSEP|10=102|8=FIXT.1.1|9=44|35=0|52=20111124-05:47:35.767|1180=JSEFTSEP|10=108|8=FIXT.1.1|9=44|35=0|52=20111124-05:47:37.763|1180=JSEFTSEP|10=106|8=FIXT.1.1|9=44|35=0|52=20111124-05:47:39.763|1180=JSEFTSEP|10=108|8=FIXT.1.1|9=44|35=0|52=20111124-05:47:41.763|1180=JSEFTSEP|10=101|8=FIXT.1.1|9=44|35=0|52=20111124-05:47:43.763|1180=JSEFTSEP|10=103|8=FIXT.1.1|9=44|35=0|52=20111124-05:47:45.763|1180=JSEFTSEP|10=105|8=FIXT.1.1|9=44|35=0|52=20111124-05:47:47.763|1180=JSEFTSEP|10=107|8=FIXT.1.1|9=44|35=0|52=20111124-05:47:49.764|1180=JSEFTSEP|10=110|8=FIXT.1.1|9=44|35=0|52=20111124-05:47:51.764|1180=JSEFTSEP|10=103|8=FIXT.1.1|9=44|35=0|52=20111124-05:47:53.764|1180=JSEFTSEP|10=105|8=FIXT.1.1|9=44|35=0|52=20111124-05:47:55.764|1180=JSEFTSEP|10=107|8=FIXT.1.1|9=44|35=0|52=20111124-05:47:57.763|1180=JSEFTSEP|10=108|8=FIXT.1.1|9=44|35=0|52=20111124-05:47:59.764|1180=JSEFTSEP|10=111|8=FIXT.1.1|9=44|35=0|52=20111124-05:48:01.763|1180=JSEFTSEP|10=098|8=FIXT.1.1|9=44|35=0|52=20111124-05:48:03.764|1180=JSEFTSEP|10=101|8=FIXT.1.1|9=44|35=0|52=20111124-05:48:05.763|1180=JSEFTSEP|10=102|8=FIXT.1.1|9=44|35=0|52=20111124-05:48:07.763|1180=JSEFTSEP|10=104|8=FIXT.1.1|9=44|35=0|52=20111124-05:48:09.764|1180=JSEFTSEP|10=107|8=FIXT.1.1|9=44|35=0|52=20111124-05:48:11.764|1180=JSEFTSEP|10=100|8=FIXT.1.1|9=44|35=0|52=20111124-05:48:13.763|1180=JSEFTSEP|10=101|8=FIXT.1.1|9=44|35=0|52=20111124-05:48:15.764|1180=JSEFTSEP|10=104|8=FIXT.1.1|9=44|35=0|52=20111124-05:48:17.764|1180=JSEFTSEP|10=106|8=FIXT.1.1|9=44|35=0|52=20111124-05:48:19.763|1180=JSEFTSEP|10=107|8=FIXT.1.1|9=44|35=0|52=20111124-05:48:21.763|1180=JSEFTSEP|10=100|8=FIXT.1.1|9=44|35=0|52=20111124-05:48:23.763|1180=JSEFTSEP|10=102|8=FIXT.1.1|9=44|35=0|52=20111124-05:48:25.763|1180=JSEFTSEP|10=104|8=FIXT.1.1|9=44|35=0|52=20111124-05:48:27.763|1180=JSEFTSEP|10=106|8=FIXT.1.1|9=44|35=0|52=20111124-05:48:29.764|1180=JSEFTSEP|10=109|8=FIXT.1.1|9=44|35=0|52=20111124-05:48:31.764|1180=JSEFTSEP|10=102|8=FIXT.1.1|9=44|35=0|52=20111124-05:48:33.763|1180=JSEFTSEP|10=103|8=FIXT.1.1|9=44|35=0|52=20111124-05:48:35.763|1180=JSEFTSEP|10=105|8=FIXT.1.1|9=44|35=0|52=20111124-05:48:37.763|1180=JSEFTSEP|10=107|8=FIXT.1.1|9=44|35=0|52=20111124-05:48:39.763|1180=JSEFTSEP|10=109|8=FIXT.1.1|9=44|35=0|52=20111124-05:48:41.764|1180=JSEFTSEP|10=103|8=FIXT.1.1|9=44|35=0|52=20111124-05:48:43.763|1180=JSEFTSEP|10=104|8=FIXT.1.1|9=44|35=0|52=20111124-05:48:45.763|1180=JSEFTSEP|10=106|8=FIXT.1.1|9=44|35=0|52=20111124-05:48:47.764|1180=JSEFTSEP|10=109|8=FIXT.1.1|9=44|35=0|52=20111124-05:48:49.764|1180=JSEFTSEP|10=111|8=FIXT.1.1|9=44|35=0|52=20111124-05:48:51.763|1180=JSEFTSEP|10=103|8=FIXT.1.1|9=44|35=0|52=20111124-05:48:53.763|1180=JSEFTSEP|10=105|8=FIXT.1.1|9=44|35=0|52=20111124-05:48:55.763|1180=JSEFTSEP|10=107|8=FIXT.1.1|9=44|35=0|52=20111124-05:48:57.763|1180=JSEFTSEP|10=109|8=FIXT.1.1|9=44|35=0|52=20111124-05:48:59.763|1180=JSEFTSEP|10=111|8=FIXT.1.1|9=44|35=0|52=20111124-05:49:01.763|1180=JSEFTSEP|10=099|8=FIXT.1.1|9=44|35=0|52=20111124-05:49:03.764|1180=JSEFTSEP|10=102|8=FIXT.1.1|9=44|35=0|52=20111124-05:49:05.763|1180=JSEFTSEP|10=103|8=FIXT.1.1|9=44|35=0|52=20111124-05:49:07.763|1180=JSEFTSEP|10=105|8=FIXT.1.1|9=44|35=0|52=20111124-05:49:09.763|1180=JSEFTSEP|10=107|8=FIXT.1.1|9=44|35=0|52=20111124-05:49:11.764|1180=JSEFTSEP|10=101|8=FIXT.1.1|9=44|35=0|52=20111124-05:49:13.764|1180=JSEFTSEP|10=103|8=FIXT.1.1|9=44|35=0|52=20111124-05:49:15.763|1180=JSEFTSEP|10=104|8=FIXT.1.1|9=44|35=0|52=20111124-05:49:17.763|1180=JSEFTSEP|10=106|8=FIXT.1.1|9=44|35=0|52=20111124-05:49:19.763|1180=JSEFTSEP|10=108|8=FIXT.1.1|9=44|35=0|52=20111124-05:49:21.764|1180=JSEFTSEP|10=102|8=FIXT.1.1|9=44|35=0|52=20111124-05:49:23.763|1180=JSEFTSEP|10=103|8=FIXT.1.1|9=44|35=0|52=20111124-05:49:25.763|1180=JSEFTSEP|10=105|8=FIXT.1.1|9=44|35=0|52=20111124-05:49:27.764|1180=JSEFTSEP|10=108|8=FIXT.1.1|9=44|35=0|52=20111124-05:49:29.764|1180=JSEFTSEP|10=110|8=FIXT.1.1|9=44|35=0|52=20111124-05:49:31.763|1180=JSEFTSEP|10=102|8=FIXT.1.1|9=44|35=0|52=20111124-05:49:33.763|1180=JSEFTSEP|10=104|8=FIXT.1.1|9=44|35=0|52=20111124-05:49:35.763|1180=JSEFTSEP|10=106|8=FIXT.1.1|9=44|35=0|52=20111124-05:49:37.763|1180=JSEFTSEP|10=108|8=FIXT.1.1|9=44|35=0|52=20111124-05:49:39.763|1180=JSEFTSEP|10=110|8=FIXT.1.1|9=44|35=0|52=20111124-05:49:41.763|1180=JSEFTSEP|10=103|8=FIXT.1.1|9=44|35=0|52=20111124-05:49:43.763|1180=JSEFTSEP|10=105|8=FIXT.1.1|9=44|35=0|52=20111124-05:49:45.763|1180=JSEFTSEP|10=107|8=FIXT.1.1|9=44|35=0|52=20111124-05:49:47.763|1180=JSEFTSEP|10=109|8=FIXT.1.1|9=44|35=0|52=20111124-05:49:49.764|1180=JSEFTSEP|10=112|8=FIXT.1.1|9=44|35=0|52=20111124-05:49:51.763|1180=JSEFTSEP|10=104|8=FIXT.1.1|9=44|35=0|52=20111124-05:49:53.763|1180=JSEFTSEP|10=106|8=FIXT.1.1|9=44|35=0|52=20111124-05:49:55.763|1180=JSEFTSEP|10=108|8=FIXT.1.1|9=44|35=0|52=20111124-05:49:57.763|1180=JSEFTSEP|10=110|8=FIXT.1.1|9=44|35=0|52=20111124-05:49:59.763|1180=JSEFTSEP|10=112|8=FIXT.1.1|9=44|35=0|52=20111124-05:50:01.763|1180=JSEFTSEP|10=091|8=FIXT.1.1|9=44|35=0|52=20111124-05:50:03.764|1180=JSEFTSEP|10=094|8=FIXT.1.1|9=44|35=0|52=20111124-05:50:05.764|1180=JSEFTSEP|10=096|8=FIXT.1.1|9=44|35=0|52=20111124-05:50:07.764|1180=JSEFTSEP|10=098|8=FIXT.1.1|9=44|35=0|52=20111124-05:50:09.763|1180=JSEFTSEP|10=099|8=FIXT.1.1|9=44|35=0|52=20111124-05:50:11.768|1180=JSEFTSEP|10=097|8=FIXT.1.1|9=44|35=0|52=20111124-05:50:13.764|1180=JSEFTSEP|10=095|8=FIXT.1.1|9=44|35=0|52=20111124-05:50:15.763|1180=JSEFTSEP|10=096|8=FIXT.1.1|9=44|35=0|52=20111124-05:50:17.764|1180=JSEFTSEP|10=099|8=FIXT.1.1|9=44|35=0|52=20111124-05:50:19.763|1180=JSEFTSEP|10=100|8=FIXT.1.1|9=44|35=0|52=20111124-05:50:21.763|1180=JSEFTSEP|10=093|8=FIXT.1.1|9=44|35=0|52=20111124-05:50:21.763|1180=JSEFTSEP|10=093|8=FIXT.1.1|9=44|35=0|52=20111124-05:50:23.763|1180=JSEFTSEP|10=095|8=FIXT.1.1|9=44|35=0|52=20111124-05:50:25.764|1180=JSEFTSEP|10=098|8=FIXT.1.1|9=44|35=0|52=20111124-05:50:27.763|1180=JSEFTSEP|10=099|8=FIXT.1.1|9=44|35=0|52=20111124-05:50:29.764|1180=JSEFTSEP|10=102|8=FIXT.1.1|9=44|35=0|52=20111124-05:50:31.763|1180=JSEFTSEP|10=094|8=FIXT.1.1|9=44|35=0|52=20111124-05:50:33.764|1180=JSEFTSEP|10=097|8=FIXT.1.1|9=44|35=0|52=20111124-05:50:35.764|1180=JSEFTSEP|10=099|8=FIXT.1.1|9=44|35=0|52=20111124-05:50:37.764|1180=JSEFTSEP|10=101|8=FIXT.1.1|9=44|35=0|52=20111124-05:50:39.767|1180=JSEFTSEP|10=106|8=FIXT.1.1|9=44|35=0|52=20111124-05:50:41.764|1180=JSEFTSEP|10=096|8=FIXT.1.1|9=44|35=0|52=20111124-05:50:43.763|1180=JSEFTSEP|10=097|8=FIXT.1.1|9=44|35=0|52=20111124-05:50:45.763|1180=JSEFTSEP|10=099|8=FIXT.1.1|9=44|35=0|52=20111124-05:50:47.764|1180=JSEFTSEP|10=102|8=FIXT.1.1|9=44|35=0|52=20111124-05:50:49.763|1180=JSEFTSEP|10=103|8=FIXT.1.1|9=44|35=0|52=20111124-05:50:51.763|1180=JSEFTSEP|10=096|8=FIXT.1.1|9=44|35=0|52=20111124-05:50:53.764|1180=JSEFTSEP|10=099|8=FIXT.1.1|9=44|35=0|52=20111124-05:50:55.763|1180=JSEFTSEP|10=100|8=FIXT.1.1|9=44|35=0|52=20111124-05:50:57.763|1180=JSEFTSEP|10=102|8=FIXT.1.1|9=44|35=0|52=20111124-05:50:59.764|1180=JSEFTSEP|10=105|8=FIXT.1.1|9=44|35=0|52=20111124-05:51:01.763|1180=JSEFTSEP|10=092|8=FIXT.1.1|9=44|35=0|52=20111124-05:51:03.763|1180=JSEFTSEP|10=094|8=FIXT.1.1|9=44|35=0|52=20111124-05:51:05.763|1180=JSEFTSEP|10=096|8=FIXT.1.1|9=44|35=0|52=20111124-05:51:07.763|1180=JSEFTSEP|10=098|8=FIXT.1.1|9=44|35=0|52=20111124-05:51:09.764|1180=JSEFTSEP|10=101|8=FIXT.1.1|9=44|35=0|52=20111124-05:51:11.763|1180=JSEFTSEP|10=093|8=FIXT.1.1|9=44|35=0|52=20111124-05:51:13.763|1180=JSEFTSEP|10=095|8=FIXT.1.1|9=44|35=0|52=20111124-05:51:15.763|1180=JSEFTSEP|10=097|8=FIXT.1.1|9=44|35=0|52=20111124-05:51:17.764|1180=JSEFTSEP|10=100|8=FIXT.1.1|9=44|35=0|52=20111124-05:51:19.763|1180=JSEFTSEP|10=101|8=FIXT.1.1|9=44|35=0|52=20111124-05:51:21.763|1180=JSEFTSEP|10=094|8=FIXT.1.1|9=44|35=0|52=20111124-05:51:23.764|1180=JSEFTSEP|10=097|8=FIXT.1.1|9=44|35=0|52=20111124-05:51:25.764|1180=JSEFTSEP|10=099|8=FIXT.1.1|9=44|35=0|52=20111124-05:51:27.763|1180=JSEFTSEP|10=100|8=FIXT.1.1|9=44|35=0|52=20111124-05:51:29.764|1180=JSEFTSEP|10=103|8=FIXT.1.1|9=44|35=0|52=20111124-05:51:31.767|1180=JSEFTSEP|10=099|8=FIXT.1.1|9=44|35=0|52=20111124-05:51:33.764|1180=JSEFTSEP|10=098|8=FIXT.1.1|9=44|35=0|52=20111124-05:51:35.763|1180=JSEFTSEP|10=099|8=FIXT.1.1|9=44|35=0|52=20111124-05:51:37.764|1180=JSEFTSEP|10=102|8=FIXT.1.1|9=44|35=0|52=20111124-05:51:39.764|1180=JSEFTSEP|10=104|8=FIXT.1.1|9=44|35=0|52=20111124-05:51:41.763|1180=JSEFTSEP|10=096|8=FIXT.1.1|9=44|35=0|52=20111124-05:51:43.764|1180=JSEFTSEP|10=099|8=FIXT.1.1|9=44|35=0|52=20111124-05:51:45.764|1180=JSEFTSEP|10=101|8=FIXT.1.1|9=44|35=0|52=20111124-05:51:47.764|1180=JSEFTSEP|10=103|8=FIXT.1.1|9=44|35=0|52=20111124-05:51:49.763|1180=JSEFTSEP|10=104|8=FIXT.1.1|9=44|35=0|52=20111124-05:51:51.763|1180=JSEFTSEP|10=097|8=FIXT.1.1|9=44|35=0|52=20111124-05:51:53.764|1180=JSEFTSEP|10=100|8=FIXT.1.1|9=44|35=0|52=20111124-05:51:55.763|1180=JSEFTSEP|10=101|8=FIXT.1.1|9=44|35=0|52=20111124-05:51:57.763|1180=JSEFTSEP|10=103|8=FIXT.1.1|9=44|35=0|52=20111124-05:51:59.763|1180=JSEFTSEP|10=105|8=FIXT.1.1|9=44|35=0|52=20111124-05:52:01.763|1180=JSEFTSEP|10=093|8=FIXT.1.1|9=44|35=0|52=20111124-05:52:03.764|1180=JSEFTSEP|10=096|8=FIXT.1.1|9=44|35=0|52=20111124-05:52:05.764|1180=JSEFTSEP|10=098|8=FIXT.1.1|9=44|35=0|52=20111124-05:52:07.763|1180=JSEFTSEP|10=099|8=FIXT.1.1|9=44|35=0|52=20111124-05:52:09.763|1180=JSEFTSEP|10=101|8=FIXT.1.1|9=44|35=0|52=20111124-05:52:11.763|1180=JSEFTSEP|10=094|8=FIXT.1.1|9=44|35=0|52=20111124-05:52:13.764|1180=JSEFTSEP|10=097|8=FIXT.1.1|9=44|35=0|52=20111124-05:52:15.763|1180=JSEFTSEP|10=098|8=FIXT.1.1|9=44|35=0|52=20111124-05:52:17.763|1180=JSEFTSEP|10=100|8=FIXT.1.1|9=44|35=0|52=20111124-05:52:19.764|1180=JSEFTSEP|10=103|8=FIXT.1.1|9=44|35=0|52=20111124-05:52:21.764|1180=JSEFTSEP|10=096|8=FIXT.1.1|9=44|35=0|52=20111124-05:52:23.768|1180=JSEFTSEP|10=102|8=FIXT.1.1|9=44|35=0|52=20111124-05:52:25.763|1180=JSEFTSEP|10=099|8=FIXT.1.1|9=44|35=0|52=20111124-05:52:27.763|1180=JSEFTSEP|10=101|8=FIXT.1.1|9=44|35=0|52=20111124-05:52:29.763|1180=JSEFTSEP|10=103|8=FIXT.1.1|9=44|35=0|52=20111124-05:52:31.763|1180=JSEFTSEP|10=096|8=FIXT.1.1|9=44|35=0|52=20111124-05:52:33.763|1180=JSEFTSEP|10=098|8=FIXT.1.1|9=44|35=0|52=20111124-05:52:35.763|1180=JSEFTSEP|10=100|8=FIXT.1.1|9=44|35=0|52=20111124-05:52:37.763|1180=JSEFTSEP|10=102|8=FIXT.1.1|9=44|35=0|52=20111124-05:52:39.763|1180=JSEFTSEP|10=104|8=FIXT.1.1|9=44|35=0|52=20111124-05:52:41.767|1180=JSEFTSEP|10=101|8=FIXT.1.1|9=44|35=0|52=20111124-05:52:43.763|1180=JSEFTSEP|10=099|8=FIXT.1.1|9=44|35=0|52=20111124-05:52:45.767|1180=JSEFTSEP|10=105|8=FIXT.1.1|9=44|35=0|52=20111124-05:52:47.763|1180=JSEFTSEP|10=103|8=FIXT.1.1|9=44|35=0|52=20111124-05:52:49.763|1180=JSEFTSEP|10=105|8=FIXT.1.1|9=44|35=0|52=20111124-05:52:51.764|1180=JSEFTSEP|10=099|8=FIXT.1.1|9=44|35=0|52=20111124-05:52:53.763|1180=JSEFTSEP|10=100|8=FIXT.1.1|9=44|35=0|52=20111124-05:52:55.764|1180=JSEFTSEP|10=103|8=FIXT.1.1|9=44|35=0|52=20111124-05:52:57.763|1180=JSEFTSEP|10=104|8=FIXT.1.1|9=44|35=0|52=20111124-05:52:59.763|1180=JSEFTSEP|10=106|8=FIXT.1.1|9=44|35=0|52=20111124-05:53:01.763|1180=JSEFTSEP|10=094|8=FIXT.1.1|9=44|35=0|52=20111124-05:53:03.764|1180=JSEFTSEP|10=097|8=FIXT.1.1|9=44|35=0|52=20111124-05:53:05.764|1180=JSEFTSEP|10=099|8=FIXT.1.1|9=44|35=0|52=20111124-05:53:07.767|1180=JSEFTSEP|10=104|8=FIXT.1.1|9=44|35=0|52=20111124-05:53:09.763|1180=JSEFTSEP|10=102|8=FIXT.1.1|9=44|35=0|52=20111124-05:53:11.763|1180=JSEFTSEP|10=095|8=FIXT.1.1|9=44|35=0|52=20111124-05:53:13.763|1180=JSEFTSEP|10=097|8=FIXT.1.1|9=44|35=0|52=20111124-05:53:15.763|1180=JSEFTSEP|10=099|8=FIXT.1.1|9=44|35=0|52=20111124-05:53:17.764|1180=JSEFTSEP|10=102|8=FIXT.1.1|9=44|35=0|52=20111124-05:53:19.763|1180=JSEFTSEP|10=103|8=FIXT.1.1|9=44|35=0|52=20111124-05:53:21.763|1180=JSEFTSEP|10=096|8=FIXT.1.1|9=44|35=0|52=20111124-05:53:23.763|1180=JSEFTSEP|10=098|8=FIXT.1.1|9=44|35=0|52=20111124-05:53:25.764|1180=JSEFTSEP|10=101|8=FIXT.1.1|9=44|35=0|52=20111124-05:53:27.764|1180=JSEFTSEP|10=103|8=FIXT.1.1|9=44|35=0|52=20111124-05:53:29.763|1180=JSEFTSEP|10=104|8=FIXT.1.1|9=44|35=0|52=20111124-05:53:31.763|1180=JSEFTSEP|10=097|8=FIXT.1.1|9=44|35=0|52=20111124-05:53:33.764|1180=JSEFTSEP|10=100|8=FIXT.1.1|9=44|35=0|52=20111124-05:53:35.763|1180=JSEFTSEP|10=101|8=FIXT.1.1|9=44|35=0|52=20111124-05:53:37.763|1180=JSEFTSEP|10=103|8=FIXT.1.1|9=44|35=0|52=20111124-05:53:39.763|1180=JSEFTSEP|10=105|8=FIXT.1.1|9=44|35=0|52=20111124-05:53:41.763|1180=JSEFTSEP|10=098|8=FIXT.1.1|9=44|35=0|52=20111124-05:53:43.764|1180=JSEFTSEP|10=101|8=FIXT.1.1|9=44|35=0|52=20111124-05:53:45.763|1180=JSEFTSEP|10=102|8=FIXT.1.1|9=44|35=0|52=20111124-05:53:47.763|1180=JSEFTSEP|10=104|8=FIXT.1.1|9=44|35=0|52=20111124-05:53:49.763|1180=JSEFTSEP|10=106|8=FIXT.1.1|9=44|35=0|52=20111124-05:53:51.764|1180=JSEFTSEP|10=100|8=FIXT.1.1|9=44|35=0|52=20111124-05:53:53.764|1180=JSEFTSEP|10=102|8=FIXT.1.1|9=44|35=0|52=20111124-05:53:55.763|1180=JSEFTSEP|10=103|8=FIXT.1.1|9=44|35=0|52=20111124-05:53:57.763|1180=JSEFTSEP|10=105|8=FIXT.1.1|9=44|35=0|52=20111124-05:53:59.767|1180=JSEFTSEP|10=111|8=FIXT.1.1|9=44|35=0|52=20111124-05:54:01.763|1180=JSEFTSEP|10=095|8=FIXT.1.1|9=44|35=0|52=20111124-05:54:03.763|1180=JSEFTSEP|10=097|8=FIXT.1.1|9=44|35=0|52=20111124-05:54:05.763|1180=JSEFTSEP|10=099|8=FIXT.1.1|9=44|35=0|52=20111124-05:54:07.767|1180=JSEFTSEP|10=105|8=FIXT.1.1|9=44|35=0|52=20111124-05:54:09.764|1180=JSEFTSEP|10=104|8=FIXT.1.1|9=44|35=0|52=20111124-05:54:11.767|1180=JSEFTSEP|10=100|8=FIXT.1.1|9=44|35=0|52=20111124-05:54:13.763|1180=JSEFTSEP|10=098|8=FIXT.1.1|9=44|35=0|52=20111124-05:54:15.763|1180=JSEFTSEP|10=100|8=FIXT.1.1|9=44|35=0|52=20111124-05:54:17.763|1180=JSEFTSEP|10=102|8=FIXT.1.1|9=44|35=0|52=20111124-05:54:19.763|1180=JSEFTSEP|10=104|8=FIXT.1.1|9=44|35=0|52=20111124-05:54:21.763|1180=JSEFTSEP|10=097|8=FIXT.1.1|9=44|35=0|52=20111124-05:54:23.764|1180=JSEFTSEP|10=100|8=FIXT.1.1|9=44|35=0|52=20111124-05:54:25.763|1180=JSEFTSEP|10=101|8=FIXT.1.1|9=44|35=0|52=20111124-05:54:27.763|1180=JSEFTSEP|10=103|8=FIXT.1.1|9=44|35=0|52=20111124-05:54:29.764|1180=JSEFTSEP|10=106|8=FIXT.1.1|9=44|35=0|52=20111124-05:54:31.764|1180=JSEFTSEP|10=099|8=FIXT.1.1|9=44|35=0|52=20111124-05:54:33.767|1180=JSEFTSEP|10=104|8=FIXT.1.1|9=44|35=0|52=20111124-05:54:35.763|1180=JSEFTSEP|10=102|8=FIXT.1.1|9=44|35=0|52=20111124-05:54:37.763|1180=JSEFTSEP|10=104|8=FIXT.1.1|9=44|35=0|52=20111124-05:54:39.763|1180=JSEFTSEP|10=106|8=FIXT.1.1|9=44|35=0|52=20111124-05:54:41.763|1180=JSEFTSEP|10=099|8=FIXT.1.1|9=44|35=0|52=20111124-05:54:43.764|1180=JSEFTSEP|10=102|8=FIXT.1.1|9=44|35=0|52=20111124-05:54:45.764|1180=JSEFTSEP|10=104|8=FIXT.1.1|9=44|35=0|52=20111124-05:54:47.763|1180=JSEFTSEP|10=105|8=FIXT.1.1|9=44|35=0|52=20111124-05:54:49.763|1180=JSEFTSEP|10=107|8=FIXT.1.1|9=44|35=0|52=20111124-05:54:51.763|1180=JSEFTSEP|10=100|8=FIXT.1.1|9=44|35=0|52=20111124-05:54:53.763|1180=JSEFTSEP|10=102|8=FIXT.1.1|9=44|35=0|52=20111124-05:54:55.768|1180=JSEFTSEP|10=109|8=FIXT.1.1|9=44|35=0|52=20111124-05:54:57.763|1180=JSEFTSEP|10=106|8=FIXT.1.1|9=44|35=0|52=20111124-05:54:57.763|1180=JSEFTSEP|10=106|8=FIXT.1.1|9=44|35=0|52=20111124-05:54:59.763|1180=JSEFTSEP|10=108|8=FIXT.1.1|9=44|35=0|52=20111124-05:55:01.764|1180=JSEFTSEP|10=097|8=FIXT.1.1|9=44|35=0|52=20111124-05:55:03.763|1180=JSEFTSEP|10=098|8=FIXT.1.1|9=44|35=0|52=20111124-05:55:05.763|1180=JSEFTSEP|10=100|8=FIXT.1.1|9=44|35=0|52=20111124-05:55:07.763|1180=JSEFTSEP|10=102|8=FIXT.1.1|9=44|35=0|52=20111124-05:55:09.763|1180=JSEFTSEP|10=104|8=FIXT.1.1|9=44|35=0|52=20111124-05:55:11.763|1180=JSEFTSEP|10=097|8=FIXT.1.1|9=44|35=0|52=20111124-05:55:13.763|1180=JSEFTSEP|10=099|8=FIXT.1.1|9=44|35=0|52=20111124-05:55:15.763|1180=JSEFTSEP|10=101|8=FIXT.1.1|9=44|35=0|52=20111124-05:55:17.763|1180=JSEFTSEP|10=103|8=FIXT.1.1|9=44|35=0|52=20111124-05:55:19.763|1180=JSEFTSEP|10=105|8=FIXT.1.1|9=44|35=0|52=20111124-05:55:21.763|1180=JSEFTSEP|10=098|8=FIXT.1.1|9=44|35=0|52=20111124-05:55:23.764|1180=JSEFTSEP|10=101|8=FIXT.1.1|9=44|35=0|52=20111124-05:55:25.764|1180=JSEFTSEP|10=103|8=FIXT.1.1|9=44|35=0|52=20111124-05:55:27.763|1180=JSEFTSEP|10=104|8=FIXT.1.1|9=44|35=0|52=20111124-05:55:29.763|1180=JSEFTSEP|10=106|8=FIXT.1.1|9=44|35=0|52=20111124-05:55:31.764|1180=JSEFTSEP|10=100|8=FIXT.1.1|9=44|35=0|52=20111124-05:55:33.764|1180=JSEFTSEP|10=102|8=FIXT.1.1|9=44|35=0|52=20111124-05:55:35.764|1180=JSEFTSEP|10=104|8=FIXT.1.1|9=44|35=0|52=20111124-05:55:37.763|1180=JSEFTSEP|10=105|8=FIXT.1.1|9=44|35=0|52=20111124-05:55:39.763|1180=JSEFTSEP|10=107|8=FIXT.1.1|9=44|35=0|52=20111124-05:55:41.764|1180=JSEFTSEP|10=101|8=FIXT.1.1|9=44|35=0|52=20111124-05:55:43.763|1180=JSEFTSEP|10=102|8=FIXT.1.1|9=44|35=0|52=20111124-05:55:45.764|1180=JSEFTSEP|10=105|8=FIXT.1.1|9=44|35=0|52=20111124-05:55:47.763|1180=JSEFTSEP|10=106|8=FIXT.1.1|9=44|35=0|52=20111124-05:55:49.763|1180=JSEFTSEP|10=108|8=FIXT.1.1|9=44|35=0|52=20111124-05:55:51.763|1180=JSEFTSEP|10=101|8=FIXT.1.1|9=44|35=0|52=20111124-05:55:53.763|1180=JSEFTSEP|10=103|8=FIXT.1.1|9=44|35=0|52=20111124-05:55:55.763|1180=JSEFTSEP|10=105|8=FIXT.1.1|9=44|35=0|52=20111124-05:55:57.763|1180=JSEFTSEP|10=107|8=FIXT.1.1|9=44|35=0|52=20111124-05:55:59.763|1180=JSEFTSEP|10=109|8=FIXT.1.1|9=44|35=0|52=20111124-05:56:01.763|1180=JSEFTSEP|10=097|8=FIXT.1.1|9=44|35=0|52=20111124-05:56:03.763|1180=JSEFTSEP|10=099|8=FIXT.1.1|9=44|35=0|52=20111124-05:56:05.763|1180=JSEFTSEP|10=101|8=FIXT.1.1|9=44|35=0|52=20111124-05:56:07.763|1180=JSEFTSEP|10=103|8=FIXT.1.1|9=44|35=0|52=20111124-05:56:09.763|1180=JSEFTSEP|10=105|8=FIXT.1.1|9=44|35=0|52=20111124-05:56:11.763|1180=JSEFTSEP|10=098|8=FIXT.1.1|9=44|35=0|52=20111124-05:56:13.764|1180=JSEFTSEP|10=101|8=FIXT.1.1|9=44|35=0|52=20111124-05:56:15.764|1180=JSEFTSEP|10=103|8=FIXT.1.1|9=44|35=0|52=20111124-05:56:17.764|1180=JSEFTSEP|10=105|8=FIXT.1.1|9=44|35=0|52=20111124-05:56:19.763|1180=JSEFTSEP|10=106|8=FIXT.1.1|9=44|35=0|52=20111124-05:56:21.763|1180=JSEFTSEP|10=099|8=FIXT.1.1|9=44|35=0|52=20111124-05:56:23.763|1180=JSEFTSEP|10=101|8=FIXT.1.1|9=44|35=0|52=20111124-05:56:25.764|1180=JSEFTSEP|10=104|8=FIXT.1.1|9=44|35=0|52=20111124-05:56:27.763|1180=JSEFTSEP|10=105|8=FIXT.1.1|9=44|35=0|52=20111124-05:56:29.763|1180=JSEFTSEP|10=107|8=FIXT.1.1|9=44|35=0|52=20111124-05:56:31.763|1180=JSEFTSEP|10=100|8=FIXT.1.1|9=44|35=0|52=20111124-05:56:33.764|1180=JSEFTSEP|10=103|8=FIXT.1.1|9=44|35=0|52=20111124-05:56:35.763|1180=JSEFTSEP|10=104|8=FIXT.1.1|9=44|35=0|52=20111124-05:56:37.764|1180=JSEFTSEP|10=107|8=FIXT.1.1|9=44|35=0|52=20111124-05:56:39.763|1180=JSEFTSEP|10=108|8=FIXT.1.1|9=44|35=0|52=20111124-05:56:41.763|1180=JSEFTSEP|10=101|8=FIXT.1.1|9=44|35=0|52=20111124-05:56:43.763|1180=JSEFTSEP|10=103|8=FIXT.1.1|9=44|35=0|52=20111124-05:56:45.764|1180=JSEFTSEP|10=106|8=FIXT.1.1|9=44|35=0|52=20111124-05:56:47.763|1180=JSEFTSEP|10=107|8=FIXT.1.1|9=44|35=0|52=20111124-05:56:49.763|1180=JSEFTSEP|10=109|8=FIXT.1.1|9=44|35=0|52=20111124-05:56:51.764|1180=JSEFTSEP|10=103|8=FIXT.1.1|9=44|35=0|52=20111124-05:56:53.763|1180=JSEFTSEP|10=104|8=FIXT.1.1|9=44|35=0|52=20111124-05:56:55.764|1180=JSEFTSEP|10=107|8=FIXT.1.1|9=44|35=0|52=20111124-05:56:57.763|1180=JSEFTSEP|10=108|8=FIXT.1.1|9=44|35=0|52=20111124-05:56:59.763|1180=JSEFTSEP|10=110|8=FIXT.1.1|9=44|35=0|52=20111124-05:57:01.763|1180=JSEFTSEP|10=098|8=FIXT.1.1|9=44|35=0|52=20111124-05:57:03.763|1180=JSEFTSEP|10=100|8=FIXT.1.1|9=44|35=0|52=20111124-05:57:05.764|1180=JSEFTSEP|10=103|8=FIXT.1.1|9=44|35=0|52=20111124-05:57:07.763|1180=JSEFTSEP|10=104|8=FIXT.1.1|9=44|35=0|52=20111124-05:57:09.763|1180=JSEFTSEP|10=106|8=FIXT.1.1|9=44|35=0|52=20111124-05:57:11.764|1180=JSEFTSEP|10=100|8=FIXT.1.1|9=44|35=0|52=20111124-05:57:13.763|1180=JSEFTSEP|10=101|8=FIXT.1.1|9=44|35=0|52=20111124-05:57:15.763|1180=JSEFTSEP|10=103|8=FIXT.1.1|9=44|35=0|52=20111124-05:57:17.764|1180=JSEFTSEP|10=106|8=FIXT.1.1|9=44|35=0|52=20111124-05:57:19.763|1180=JSEFTSEP|10=107|8=FIXT.1.1|9=44|35=0|52=20111124-05:57:21.764|1180=JSEFTSEP|10=101|8=FIXT.1.1|9=44|35=0|52=20111124-05:57:23.764|1180=JSEFTSEP|10=103|8=FIXT.1.1|9=44|35=0|52=20111124-05:57:25.763|1180=JSEFTSEP|10=104|8=FIXT.1.1|9=44|35=0|52=20111124-05:57:27.763|1180=JSEFTSEP|10=106|8=FIXT.1.1|9=44|35=0|52=20111124-05:57:29.763|1180=JSEFTSEP|10=108|8=FIXT.1.1|9=44|35=0|52=20111124-05:57:31.763|1180=JSEFTSEP|10=101|8=FIXT.1.1|9=44|35=0|52=20111124-05:57:33.764|1180=JSEFTSEP|10=104|8=FIXT.1.1|9=44|35=0|52=20111124-05:57:35.764|1180=JSEFTSEP|10=106|8=FIXT.1.1|9=44|35=0|52=20111124-05:57:37.763|1180=JSEFTSEP|10=107|8=FIXT.1.1|9=44|35=0|52=20111124-05:57:39.763|1180=JSEFTSEP|10=109|8=FIXT.1.1|9=44|35=0|52=20111124-05:57:41.763|1180=JSEFTSEP|10=102|8=FIXT.1.1|9=44|35=0|52=20111124-05:57:43.763|1180=JSEFTSEP|10=104|8=FIXT.1.1|9=44|35=0|52=20111124-05:57:45.764|1180=JSEFTSEP|10=107|8=FIXT.1.1|9=44|35=0|52=20111124-05:57:47.764|1180=JSEFTSEP|10=109|8=FIXT.1.1|9=44|35=0|52=20111124-05:57:49.763|1180=JSEFTSEP|10=110|8=FIXT.1.1|9=44|35=0|52=20111124-05:57:51.763|1180=JSEFTSEP|10=103|8=FIXT.1.1|9=44|35=0|52=20111124-05:57:53.763|1180=JSEFTSEP|10=105|8=FIXT.1.1|9=44|35=0|52=20111124-05:57:55.764|1180=JSEFTSEP|10=108|8=FIXT.1.1|9=44|35=0|52=20111124-05:57:57.764|1180=JSEFTSEP|10=110|8=FIXT.1.1|9=44|35=0|52=20111124-05:57:59.764|1180=JSEFTSEP|10=112|8=FIXT.1.1|9=44|35=0|52=20111124-05:58:01.763|1180=JSEFTSEP|10=099|8=FIXT.1.1|9=44|35=0|52=20111124-05:58:03.763|1180=JSEFTSEP|10=101|8=FIXT.1.1|9=44|35=0|52=20111124-05:58:05.763|1180=JSEFTSEP|10=103|8=FIXT.1.1|9=44|35=0|52=20111124-05:58:07.763|1180=JSEFTSEP|10=105|8=FIXT.1.1|9=44|35=0|52=20111124-05:58:09.763|1180=JSEFTSEP|10=107|8=FIXT.1.1|9=44|35=0|52=20111124-05:58:11.763|1180=JSEFTSEP|10=100|8=FIXT.1.1|9=44|35=0|52=20111124-05:58:13.763|1180=JSEFTSEP|10=102|8=FIXT.1.1|9=44|35=0|52=20111124-05:58:15.763|1180=JSEFTSEP|10=104|8=FIXT.1.1|9=44|35=0|52=20111124-05:58:17.764|1180=JSEFTSEP|10=107|8=FIXT.1.1|9=44|35=0|52=20111124-05:58:19.764|1180=JSEFTSEP|10=109|8=FIXT.1.1|9=44|35=0|52=20111124-05:58:21.764|1180=JSEFTSEP|10=102|8=FIXT.1.1|9=44|35=0|52=20111124-05:58:23.763|1180=JSEFTSEP|10=103|8=FIXT.1.1|9=44|35=0|52=20111124-05:58:25.763|1180=JSEFTSEP|10=105|8=FIXT.1.1|9=44|35=0|52=20111124-05:58:27.763|1180=JSEFTSEP|10=107|8=FIXT.1.1|9=44|35=0|52=20111124-05:58:29.764|1180=JSEFTSEP|10=110|8=FIXT.1.1|9=44|35=0|52=20111124-05:58:31.764|1180=JSEFTSEP|10=103|8=FIXT.1.1|9=44|35=0|52=20111124-05:58:33.763|1180=JSEFTSEP|10=104|8=FIXT.1.1|9=44|35=0|52=20111124-05:58:35.763|1180=JSEFTSEP|10=106|8=FIXT.1.1|9=44|35=0|52=20111124-05:58:37.764|1180=JSEFTSEP|10=109|8=FIXT.1.1|9=44|35=0|52=20111124-05:58:39.763|1180=JSEFTSEP|10=110|8=FIXT.1.1|9=44|35=0|52=20111124-05:58:41.764|1180=JSEFTSEP|10=104|8=FIXT.1.1|9=44|35=0|52=20111124-05:58:43.763|1180=JSEFTSEP|10=105|8=FIXT.1.1|9=44|35=0|52=20111124-05:58:45.763|1180=JSEFTSEP|10=107|8=FIXT.1.1|9=44|35=0|52=20111124-05:58:47.764|1180=JSEFTSEP|10=110|8=FIXT.1.1|9=44|35=0|52=20111124-05:58:49.763|1180=JSEFTSEP|10=111|8=FIXT.1.1|9=44|35=0|52=20111124-05:58:51.763|1180=JSEFTSEP|10=104|8=FIXT.1.1|9=44|35=0|52=20111124-05:58:53.763|1180=JSEFTSEP|10=106|8=FIXT.1.1|9=44|35=0|52=20111124-05:58:55.763|1180=JSEFTSEP|10=108|8=FIXT.1.1|9=44|35=0|52=20111124-05:58:57.763|1180=JSEFTSEP|10=110|8=FIXT.1.1|9=44|35=0|52=20111124-05:58:59.764|1180=JSEFTSEP|10=113|8=FIXT.1.1|9=44|35=0|52=20111124-05:59:01.764|1180=JSEFTSEP|10=101|8=FIXT.1.1|9=44|35=0|52=20111124-05:59:03.763|1180=JSEFTSEP|10=102|8=FIXT.1.1|9=44|35=0|52=20111124-05:59:05.763|1180=JSEFTSEP|10=104|8=FIXT.1.1|9=44|35=0|52=20111124-05:59:07.763|1180=JSEFTSEP|10=106|8=FIXT.1.1|9=44|35=0|52=20111124-05:59:09.764|1180=JSEFTSEP|10=109|8=FIXT.1.1|9=44|35=0|52=20111124-05:59:11.763|1180=JSEFTSEP|10=101|8=FIXT.1.1|9=44|35=0|52=20111124-05:59:13.763|1180=JSEFTSEP|10=103|8=FIXT.1.1|9=44|35=0|52=20111124-05:59:15.764|1180=JSEFTSEP|10=106|8=FIXT.1.1|9=44|35=0|52=20111124-05:59:17.764|1180=JSEFTSEP|10=108|8=FIXT.1.1|9=44|35=0|52=20111124-05:59:19.763|1180=JSEFTSEP|10=109|8=FIXT.1.1|9=44|35=0|52=20111124-05:59:21.763|1180=JSEFTSEP|10=102|8=FIXT.1.1|9=44|35=0|52=20111124-05:59:23.768|1180=JSEFTSEP|10=109|8=FIXT.1.1|9=44|35=0|52=20111124-05:59:25.763|1180=JSEFTSEP|10=106|8=FIXT.1.1|9=44|35=0|52=20111124-05:59:27.763|1180=JSEFTSEP|10=108|8=FIXT.1.1|9=44|35=0|52=20111124-05:59:29.763|1180=JSEFTSEP|10=110|8=FIXT.1.1|9=44|35=0|52=20111124-05:59:31.767|1180=JSEFTSEP|10=107|8=FIXT.1.1|9=44|35=0|52=20111124-05:59:33.763|1180=JSEFTSEP|10=105|8=FIXT.1.1|9=44|35=0|52=20111124-05:59:33.763|1180=JSEFTSEP|10=105|8=FIXT.1.1|9=44|35=0|52=20111124-05:59:35.763|1180=JSEFTSEP|10=107|8=FIXT.1.1|9=44|35=0|52=20111124-05:59:37.763|1180=JSEFTSEP|10=109|8=FIXT.1.1|9=44|35=0|52=20111124-05:59:39.763|1180=JSEFTSEP|10=111|8=FIXT.1.1|9=44|35=0|52=20111124-05:59:41.764|1180=JSEFTSEP|10=105|8=FIXT.1.1|9=44|35=0|52=20111124-05:59:43.763|1180=JSEFTSEP|10=106|8=FIXT.1.1|9=44|35=0|52=20111124-05:59:45.764|1180=JSEFTSEP|10=109|8=FIXT.1.1|9=44|35=0|52=20111124-05:59:47.764|1180=JSEFTSEP|10=111|8=FIXT.1.1|9=44|35=0|52=20111124-05:59:49.763|1180=JSEFTSEP|10=112|8=FIXT.1.1|9=44|35=0|52=20111124-05:59:51.763|1180=JSEFTSEP|10=105|8=FIXT.1.1|9=44|35=0|52=20111124-05:59:53.764|1180=JSEFTSEP|10=108|8=FIXT.1.1|9=44|35=0|52=20111124-05:59:55.764|1180=JSEFTSEP|10=110|8=FIXT.1.1|9=44|35=0|52=20111124-05:59:57.763|1180=JSEFTSEP|10=111|8=FIXT.1.1|9=44|35=0|52=20111124-05:59:59.763|1180=JSEFTSEP|10=113|8=FIXT.1.1|9=44|35=0|52=20111124-06:00:01.764|1180=JSEFTSEP|10=088|8=FIXT.1.1|9=44|35=0|52=20111124-06:00:03.763|1180=JSEFTSEP|10=089|8=FIXT.1.1|9=44|35=0|52=20111124-06:00:05.763|1180=JSEFTSEP|10=091|8=FIXT.1.1|9=44|35=0|52=20111124-06:00:07.763|1180=JSEFTSEP|10=093|8=FIXT.1.1|9=44|35=0|52=20111124-06:00:09.764|1180=JSEFTSEP|10=096|8=FIXT.1.1|9=44|35=0|52=20111124-06:00:11.763|1180=JSEFTSEP|10=088|8=FIXT.1.1|9=44|35=0|52=20111124-06:00:13.763|1180=JSEFTSEP|10=090|8=FIXT.1.1|9=44|35=0|52=20111124-06:00:15.763|1180=JSEFTSEP|10=092|8=FIXT.1.1|9=44|35=0|52=20111124-06:00:17.763|1180=JSEFTSEP|10=094|8=FIXT.1.1|9=44|35=0|52=20111124-06:00:19.764|1180=JSEFTSEP|10=097|8=FIXT.1.1|9=44|35=0|52=20111124-06:00:21.768|1180=JSEFTSEP|10=094|8=FIXT.1.1|9=44|35=0|52=20111124-06:00:23.767|1180=JSEFTSEP|10=095|8=FIXT.1.1|9=44|35=0|52=20111124-06:00:25.763|1180=JSEFTSEP|10=093|8=FIXT.1.1|9=44|35=0|52=20111124-06:00:27.763|1180=JSEFTSEP|10=095|8=FIXT.1.1|9=44|35=0|52=20111124-06:00:29.763|1180=JSEFTSEP|10=097|8=FIXT.1.1|9=44|35=0|52=20111124-06:00:31.764|1180=JSEFTSEP|10=091|8=FIXT.1.1|9=44|35=0|52=20111124-06:00:33.763|1180=JSEFTSEP|10=092|8=FIXT.1.1|9=44|35=0|52=20111124-06:00:35.763|1180=JSEFTSEP|10=094|8=FIXT.1.1|9=44|35=0|52=20111124-06:00:37.763|1180=JSEFTSEP|10=096|8=FIXT.1.1|9=44|35=0|52=20111124-06:00:39.764|1180=JSEFTSEP|10=099|8=FIXT.1.1|9=44|35=0|52=20111124-06:00:41.764|1180=JSEFTSEP|10=092|8=FIXT.1.1|9=44|35=0|52=20111124-06:00:43.763|1180=JSEFTSEP|10=093|8=FIXT.1.1|9=44|35=0|52=20111124-06:00:45.763|1180=JSEFTSEP|10=095|8=FIXT.1.1|9=44|35=0|52=20111124-06:00:47.763|1180=JSEFTSEP|10=097|8=FIXT.1.1|9=44|35=0|52=20111124-06:00:49.763|1180=JSEFTSEP|10=099|8=FIXT.1.1|9=44|35=0|52=20111124-06:00:51.763|1180=JSEFTSEP|10=092|8=FIXT.1.1|9=44|35=0|52=20111124-06:00:53.763|1180=JSEFTSEP|10=094|8=FIXT.1.1|9=44|35=0|52=20111124-06:00:55.763|1180=JSEFTSEP|10=096|8=FIXT.1.1|9=44|35=0|52=20111124-06:00:57.763|1180=JSEFTSEP|10=098|8=FIXT.1.1|9=44|35=0|52=20111124-06:00:59.763|1180=JSEFTSEP|10=100|8=FIXT.1.1|9=44|35=0|52=20111124-06:01:01.764|1180=JSEFTSEP|10=089|8=FIXT.1.1|9=44|35=0|52=20111124-06:01:03.764|1180=JSEFTSEP|10=091|8=FIXT.1.1|9=44|35=0|52=20111124-06:01:05.763|1180=JSEFTSEP|10=092|8=FIXT.1.1|9=44|35=0|52=20111124-06:01:07.763|1180=JSEFTSEP|10=094|8=FIXT.1.1|9=44|35=0|52=20111124-06:01:09.764|1180=JSEFTSEP|10=097|8=FIXT.1.1|9=44|35=0|52=20111124-06:01:11.763|1180=JSEFTSEP|10=089|8=FIXT.1.1|9=44|35=0|52=20111124-06:01:13.767|1180=JSEFTSEP|10=095|8=FIXT.1.1|9=44|35=0|52=20111124-06:01:15.767|1180=JSEFTSEP|10=097|8=FIXT.1.1|9=44|35=0|52=20111124-06:01:17.763|1180=JSEFTSEP|10=095|8=FIXT.1.1|9=44|35=0|52=20111124-06:01:19.763|1180=JSEFTSEP|10=097|8=FIXT.1.1|9=44|35=0|52=20111124-06:01:21.763|1180=JSEFTSEP|10=090|8=FIXT.1.1|9=44|35=0|52=20111124-06:01:23.763|1180=JSEFTSEP|10=092|8=FIXT.1.1|9=44|35=0|52=20111124-06:01:25.763|1180=JSEFTSEP|10=094|8=FIXT.1.1|9=44|35=0|52=20111124-06:01:27.763|1180=JSEFTSEP|10=096|8=FIXT.1.1|9=44|35=0|52=20111124-06:01:29.764|1180=JSEFTSEP|10=099|8=FIXT.1.1|9=44|35=0|52=20111124-06:01:31.763|1180=JSEFTSEP|10=091|8=FIXT.1.1|9=44|35=0|52=20111124-06:01:33.764|1180=JSEFTSEP|10=094|8=FIXT.1.1|9=44|35=0|52=20111124-06:01:35.763|1180=JSEFTSEP|10=095|8=FIXT.1.1|9=44|35=0|52=20111124-06:01:37.763|1180=JSEFTSEP|10=097|8=FIXT.1.1|9=44|35=0|52=20111124-06:01:39.767|1180=JSEFTSEP|10=103|8=FIXT.1.1|9=44|35=0|52=20111124-06:01:41.763|1180=JSEFTSEP|10=092|8=FIXT.1.1|9=44|35=0|52=20111124-06:01:43.764|1180=JSEFTSEP|10=095|8=FIXT.1.1|9=44|35=0|52=20111124-06:01:45.763|1180=JSEFTSEP|10=096|8=FIXT.1.1|9=44|35=0|52=20111124-06:01:47.763|1180=JSEFTSEP|10=098|8=FIXT.1.1|9=44|35=0|52=20111124-06:01:49.764|1180=JSEFTSEP|10=101|8=FIXT.1.1|9=44|35=0|52=20111124-06:01:51.763|1180=JSEFTSEP|10=093|8=FIXT.1.1|9=44|35=0|52=20111124-06:01:53.764|1180=JSEFTSEP|10=096|8=FIXT.1.1|9=44|35=0|52=20111124-06:01:55.764|1180=JSEFTSEP|10=098|8=FIXT.1.1|9=44|35=0|52=20111124-06:01:57.763|1180=JSEFTSEP|10=099|8=FIXT.1.1|9=44|35=0|52=20111124-06:01:59.764|1180=JSEFTSEP|10=102|8=FIXT.1.1|9=44|35=0|52=20111124-06:02:01.763|1180=JSEFTSEP|10=089|8=FIXT.1.1|9=44|35=0|52=20111124-06:02:03.764|1180=JSEFTSEP|10=092|8=FIXT.1.1|9=44|35=0|52=20111124-06:02:05.763|1180=JSEFTSEP|10=093|8=FIXT.1.1|9=44|35=0|52=20111124-06:02:07.763|1180=JSEFTSEP|10=095|8=FIXT.1.1|9=44|35=0|52=20111124-06:02:09.763|1180=JSEFTSEP|10=097|8=FIXT.1.1|9=44|35=0|52=20111124-06:02:11.764|1180=JSEFTSEP|10=091|8=FIXT.1.1|9=44|35=0|52=20111124-06:02:13.763|1180=JSEFTSEP|10=092|8=FIXT.1.1|9=44|35=0|52=20111124-06:02:15.763|1180=JSEFTSEP|10=094|8=FIXT.1.1|9=44|35=0|52=20111124-06:02:17.764|1180=JSEFTSEP|10=097|8=FIXT.1.1|9=44|35=0|52=20111124-06:02:19.763|1180=JSEFTSEP|10=098|8=FIXT.1.1|9=44|35=0|52=20111124-06:02:21.764|1180=JSEFTSEP|10=092|8=FIXT.1.1|9=44|35=0|52=20111124-06:02:23.764|1180=JSEFTSEP|10=094|8=FIXT.1.1|9=44|35=0|52=20111124-06:02:25.764|1180=JSEFTSEP|10=096|8=FIXT.1.1|9=44|35=0|52=20111124-06:02:27.767|1180=JSEFTSEP|10=101|8=FIXT.1.1|9=44|35=0|52=20111124-06:02:29.768|1180=JSEFTSEP|10=104|8=FIXT.1.1|9=44|35=0|52=20111124-06:02:31.764|1180=JSEFTSEP|10=093|8=FIXT.1.1|9=44|35=0|52=20111124-06:02:33.764|1180=JSEFTSEP|10=095|8=FIXT.1.1|9=44|35=0|52=20111124-06:02:35.764|1180=JSEFTSEP|10=097|8=FIXT.1.1|9=44|35=0|52=20111124-06:02:37.764|1180=JSEFTSEP|10=099|8=FIXT.1.1|9=44|35=0|52=20111124-06:02:39.763|1180=JSEFTSEP|10=100|8=FIXT.1.1|9=44|35=0|52=20111124-06:02:41.763|1180=JSEFTSEP|10=093|8=FIXT.1.1|9=44|35=0|52=20111124-06:02:43.763|1180=JSEFTSEP|10=095|8=FIXT.1.1|9=44|35=0|52=20111124-06:02:45.764|1180=JSEFTSEP|10=098|8=FIXT.1.1|9=44|35=0|52=20111124-06:02:47.763|1180=JSEFTSEP|10=099|8=FIXT.1.1|9=44|35=0|52=20111124-06:02:49.763|1180=JSEFTSEP|10=101|8=FIXT.1.1|9=44|35=0|52=20111124-06:02:51.763|1180=JSEFTSEP|10=094|8=FIXT.1.1|9=44|35=0|52=20111124-06:02:53.764|1180=JSEFTSEP|10=097|8=FIXT.1.1|9=44|35=0|52=20111124-06:02:55.763|1180=JSEFTSEP|10=098|8=FIXT.1.1|9=44|35=0|52=20111124-06:02:57.764|1180=JSEFTSEP|10=101|8=FIXT.1.1|9=44|35=0|52=20111124-06:02:59.763|1180=JSEFTSEP|10=102|8=FIXT.1.1|9=44|35=0|52=20111124-06:03:01.763|1180=JSEFTSEP|10=090|8=FIXT.1.1|9=44|35=0|52=20111124-06:03:03.763|1180=JSEFTSEP|10=092|8=FIXT.1.1|9=44|35=0|52=20111124-06:03:05.764|1180=JSEFTSEP|10=095|8=FIXT.1.1|9=44|35=0|52=20111124-06:03:07.763|1180=JSEFTSEP|10=096|8=FIXT.1.1|9=44|35=0|52=20111124-06:03:09.763|1180=JSEFTSEP|10=098|8=FIXT.1.1|9=44|35=0|52=20111124-06:03:11.767|1180=JSEFTSEP|10=095|8=FIXT.1.1|9=44|35=0|52=20111124-06:03:13.763|1180=JSEFTSEP|10=093|8=FIXT.1.1|9=44|35=0|52=20111124-06:03:15.763|1180=JSEFTSEP|10=095|8=FIXT.1.1|9=44|35=0|52=20111124-06:03:17.763|1180=JSEFTSEP|10=097|8=FIXT.1.1|9=44|35=0|52=20111124-06:03:19.763|1180=JSEFTSEP|10=099|8=FIXT.1.1|9=44|35=0|52=20111124-06:03:21.763|1180=JSEFTSEP|10=092|8=FIXT.1.1|9=44|35=0|52=20111124-06:03:23.763|1180=JSEFTSEP|10=094|8=FIXT.1.1|9=44|35=0|52=20111124-06:03:25.763|1180=JSEFTSEP|10=096|8=FIXT.1.1|9=44|35=0|52=20111124-06:03:27.767|1180=JSEFTSEP|10=102|8=FIXT.1.1|9=44|35=0|52=20111124-06:03:29.763|1180=JSEFTSEP|10=100|8=FIXT.1.1|9=44|35=0|52=20111124-06:03:31.763|1180=JSEFTSEP|10=093|8=FIXT.1.1|9=44|35=0|52=20111124-06:03:33.763|1180=JSEFTSEP|10=095|8=FIXT.1.1|9=44|35=0|52=20111124-06:03:35.764|1180=JSEFTSEP|10=098|8=FIXT.1.1|9=44|35=0|52=20111124-06:03:37.763|1180=JSEFTSEP|10=099|8=FIXT.1.1|9=44|35=0|52=20111124-06:03:39.763|1180=JSEFTSEP|10=101|8=FIXT.1.1|9=44|35=0|52=20111124-06:03:41.764|1180=JSEFTSEP|10=095|8=FIXT.1.1|9=44|35=0|52=20111124-06:03:43.763|1180=JSEFTSEP|10=096|8=FIXT.1.1|9=44|35=0|52=20111124-06:03:45.763|1180=JSEFTSEP|10=098|8=FIXT.1.1|9=44|35=0|52=20111124-06:03:47.763|1180=JSEFTSEP|10=100|8=FIXT.1.1|9=44|35=0|52=20111124-06:03:49.763|1180=JSEFTSEP|10=102|8=FIXT.1.1|9=44|35=0|52=20111124-06:03:51.763|1180=JSEFTSEP|10=095|8=FIXT.1.1|9=44|35=0|52=20111124-06:03:53.763|1180=JSEFTSEP|10=097|8=FIXT.1.1|9=44|35=0|52=20111124-06:03:55.764|1180=JSEFTSEP|10=100|8=FIXT.1.1|9=44|35=0|52=20111124-06:03:57.763|1180=JSEFTSEP|10=101|8=FIXT.1.1|9=44|35=0|52=20111124-06:03:59.763|1180=JSEFTSEP|10=103|8=FIXT.1.1|9=44|35=0|52=20111124-06:04:01.763|1180=JSEFTSEP|10=091|8=FIXT.1.1|9=44|35=0|52=20111124-06:04:03.763|1180=JSEFTSEP|10=093|8=FIXT.1.1|9=44|35=0|52=20111124-06:04:05.763|1180=JSEFTSEP|10=095|8=FIXT.1.1|9=44|35=0|52=20111124-06:04:07.763|1180=JSEFTSEP|10=097|8=FIXT.1.1|9=44|35=0|52=20111124-06:04:09.764|1180=JSEFTSEP|10=100|8=FIXT.1.1|9=44|35=0|52=20111124-06:04:09.764|1180=JSEFTSEP|10=100|8=FIXT.1.1|9=44|35=0|52=20111124-06:04:11.763|1180=JSEFTSEP|10=092|8=FIXT.1.1|9=44|35=0|52=20111124-06:04:13.763|1180=JSEFTSEP|10=094|8=FIXT.1.1|9=44|35=0|52=20111124-06:04:15.763|1180=JSEFTSEP|10=096|8=FIXT.1.1|9=44|35=0|52=20111124-06:04:17.763|1180=JSEFTSEP|10=098|8=FIXT.1.1|9=44|35=0|52=20111124-06:04:19.764|1180=JSEFTSEP|10=101|8=FIXT.1.1|9=44|35=0|52=20111124-06:04:21.764|1180=JSEFTSEP|10=094|8=FIXT.1.1|9=44|35=0|52=20111124-06:04:23.764|1180=JSEFTSEP|10=096|8=FIXT.1.1|9=44|35=0|52=20111124-06:04:25.763|1180=JSEFTSEP|10=097|8=FIXT.1.1|9=44|35=0|52=20111124-06:04:27.764|1180=JSEFTSEP|10=100|8=FIXT.1.1|9=44|35=0|52=20111124-06:04:29.763|1180=JSEFTSEP|10=101|8=FIXT.1.1|9=44|35=0|52=20111124-06:04:31.764|1180=JSEFTSEP|10=095|8=FIXT.1.1|9=44|35=0|52=20111124-06:04:33.763|1180=JSEFTSEP|10=096|8=FIXT.1.1|9=44|35=0|52=20111124-06:04:35.764|1180=JSEFTSEP|10=099|8=FIXT.1.1|9=44|35=0|52=20111124-06:04:37.763|1180=JSEFTSEP|10=100|8=FIXT.1.1|9=44|35=0|52=20111124-06:04:39.763|1180=JSEFTSEP|10=102|8=FIXT.1.1|9=44|35=0|52=20111124-06:04:41.764|1180=JSEFTSEP|10=096|8=FIXT.1.1|9=44|35=0|52=20111124-06:04:43.764|1180=JSEFTSEP|10=098|8=FIXT.1.1|9=44|35=0|52=20111124-06:04:45.763|1180=JSEFTSEP|10=099|8=FIXT.1.1|9=44|35=0|52=20111124-06:04:47.763|1180=JSEFTSEP|10=101|8=FIXT.1.1|9=44|35=0|52=20111124-06:04:49.763|1180=JSEFTSEP|10=103|8=FIXT.1.1|9=44|35=0|52=20111124-06:04:51.763|1180=JSEFTSEP|10=096|8=FIXT.1.1|9=44|35=0|52=20111124-06:04:53.763|1180=JSEFTSEP|10=098|8=FIXT.1.1|9=44|35=0|52=20111124-06:04:55.763|1180=JSEFTSEP|10=100|8=FIXT.1.1|9=44|35=0|52=20111124-06:04:57.763|1180=JSEFTSEP|10=102|8=FIXT.1.1|9=44|35=0|52=20111124-06:04:59.763|1180=JSEFTSEP|10=104|8=FIXT.1.1|9=44|35=0|52=20111124-06:05:01.764|1180=JSEFTSEP|10=093|8=FIXT.1.1|9=44|35=0|52=20111124-06:05:03.764|1180=JSEFTSEP|10=095|8=FIXT.1.1|9=44|35=0|52=20111124-06:05:05.764|1180=JSEFTSEP|10=097|8=FIXT.1.1|9=44|35=0|52=20111124-06:05:07.764|1180=JSEFTSEP|10=099|8=FIXT.1.1|9=44|35=0|52=20111124-06:05:09.763|1180=JSEFTSEP|10=100|8=FIXT.1.1|9=44|35=0|52=20111124-06:05:11.763|1180=JSEFTSEP|10=093|8=FIXT.1.1|9=44|35=0|52=20111124-06:05:13.764|1180=JSEFTSEP|10=096|8=FIXT.1.1|9=44|35=0|52=20111124-06:05:15.767|1180=JSEFTSEP|10=101|8=FIXT.1.1|9=44|35=0|52=20111124-06:05:17.763|1180=JSEFTSEP|10=099|8=FIXT.1.1|9=44|35=0|52=20111124-06:05:19.764|1180=JSEFTSEP|10=102|8=FIXT.1.1|9=44|35=0|52=20111124-06:05:21.763|1180=JSEFTSEP|10=094|8=FIXT.1.1|9=44|35=0|52=20111124-06:05:23.763|1180=JSEFTSEP|10=096|8=FIXT.1.1|9=44|35=0|52=20111124-06:05:25.763|1180=JSEFTSEP|10=098|8=FIXT.1.1|9=44|35=0|52=20111124-06:05:27.763|1180=JSEFTSEP|10=100|8=FIXT.1.1|9=44|35=0|52=20111124-06:05:29.763|1180=JSEFTSEP|10=102|8=FIXT.1.1|9=44|35=0|52=20111124-06:05:31.764|1180=JSEFTSEP|10=096|8=FIXT.1.1|9=44|35=0|52=20111124-06:05:33.763|1180=JSEFTSEP|10=097|8=FIXT.1.1|9=44|35=0|52=20111124-06:05:35.763|1180=JSEFTSEP|10=099|8=FIXT.1.1|9=44|35=0|52=20111124-06:05:37.764|1180=JSEFTSEP|10=102|8=FIXT.1.1|9=44|35=0|52=20111124-06:05:39.763|1180=JSEFTSEP|10=103|8=FIXT.1.1|9=44|35=0|52=20111124-06:05:41.763|1180=JSEFTSEP|10=096|8=FIXT.1.1|9=44|35=0|52=20111124-06:05:43.764|1180=JSEFTSEP|10=099|8=FIXT.1.1|9=44|35=0|52=20111124-06:05:45.768|1180=JSEFTSEP|10=105|8=FIXT.1.1|9=44|35=0|52=20111124-06:05:47.764|1180=JSEFTSEP|10=103|8=FIXT.1.1|9=44|35=0|52=20111124-06:05:49.764|1180=JSEFTSEP|10=105|8=FIXT.1.1|9=44|35=0|52=20111124-06:05:51.764|1180=JSEFTSEP|10=098|8=FIXT.1.1|9=44|35=0|52=20111124-06:05:53.763|1180=JSEFTSEP|10=099|8=FIXT.1.1|9=44|35=0|52=20111124-06:05:55.764|1180=JSEFTSEP|10=102|8=FIXT.1.1|9=44|35=0|52=20111124-06:05:57.763|1180=JSEFTSEP|10=103|8=FIXT.1.1|9=44|35=0|52=20111124-06:05:59.764|1180=JSEFTSEP|10=106|8=FIXT.1.1|9=44|35=0|52=20111124-06:06:01.764|1180=JSEFTSEP|10=094|8=FIXT.1.1|9=44|35=0|52=20111124-06:06:03.764|1180=JSEFTSEP|10=096|8=FIXT.1.1|9=44|35=0|52=20111124-06:06:05.764|1180=JSEFTSEP|10=098|8=FIXT.1.1|9=44|35=0|52=20111124-06:06:07.763|1180=JSEFTSEP|10=099|8=FIXT.1.1|9=44|35=0|52=20111124-06:06:09.763|1180=JSEFTSEP|10=101|8=FIXT.1.1|9=44|35=0|52=20111124-06:06:11.763|1180=JSEFTSEP|10=094|8=FIXT.1.1|9=44|35=0|52=20111124-06:06:13.763|1180=JSEFTSEP|10=096|8=FIXT.1.1|9=44|35=0|52=20111124-06:06:15.763|1180=JSEFTSEP|10=098|8=FIXT.1.1|9=44|35=0|52=20111124-06:06:17.764|1180=JSEFTSEP|10=101|8=FIXT.1.1|9=44|35=0|52=20111124-06:06:19.763|1180=JSEFTSEP|10=102|8=FIXT.1.1|9=44|35=0|52=20111124-06:06:21.764|1180=JSEFTSEP|10=096|8=FIXT.1.1|9=44|35=0|52=20111124-06:06:23.764|1180=JSEFTSEP|10=098|8=FIXT.1.1|9=44|35=0|52=20111124-06:06:25.763|1180=JSEFTSEP|10=099|8=FIXT.1.1|9=44|35=0|52=20111124-06:06:27.764|1180=JSEFTSEP|10=102|8=FIXT.1.1|9=44|35=0|52=20111124-06:06:29.763|1180=JSEFTSEP|10=103|8=FIXT.1.1|9=44|35=0|52=20111124-06:06:31.763|1180=JSEFTSEP|10=096|8=FIXT.1.1|9=44|35=0|52=20111124-06:06:33.764|1180=JSEFTSEP|10=099|8=FIXT.1.1|9=44|35=0|52=20111124-06:06:35.763|1180=JSEFTSEP|10=100|8=FIXT.1.1|9=44|35=0|52=20111124-06:06:37.764|1180=JSEFTSEP|10=103|8=FIXT.1.1|9=44|35=0|52=20111124-06:06:39.763|1180=JSEFTSEP|10=104|8=FIXT.1.1|9=44|35=0|52=20111124-06:06:41.763|1180=JSEFTSEP|10=097|8=FIXT.1.1|9=44|35=0|52=20111124-06:06:43.763|1180=JSEFTSEP|10=099|8=FIXT.1.1|9=44|35=0|52=20111124-06:06:45.763|1180=JSEFTSEP|10=101|8=FIXT.1.1|9=44|35=0|52=20111124-06:06:47.763|1180=JSEFTSEP|10=103|8=FIXT.1.1|9=44|35=0|52=20111124-06:06:49.764|1180=JSEFTSEP|10=106|8=FIXT.1.1|9=44|35=0|52=20111124-06:06:51.763|1180=JSEFTSEP|10=098|8=FIXT.1.1|9=44|35=0|52=20111124-06:06:53.763|1180=JSEFTSEP|10=100|8=FIXT.1.1|9=44|35=0|52=20111124-06:06:55.763|1180=JSEFTSEP|10=102|8=FIXT.1.1|9=44|35=0|52=20111124-06:06:57.763|1180=JSEFTSEP|10=104|8=FIXT.1.1|9=44|35=0|52=20111124-06:06:59.763|1180=JSEFTSEP|10=106|8=FIXT.1.1|9=44|35=0|52=20111124-06:07:01.763|1180=JSEFTSEP|10=094|8=FIXT.1.1|9=44|35=0|52=20111124-06:07:03.763|1180=JSEFTSEP|10=096|8=FIXT.1.1|9=44|35=0|52=20111124-06:07:05.764|1180=JSEFTSEP|10=099|8=FIXT.1.1|9=44|35=0|52=20111124-06:07:07.763|1180=JSEFTSEP|10=100|8=FIXT.1.1|9=44|35=0|52=20111124-06:07:09.764|1180=JSEFTSEP|10=103|8=FIXT.1.1|9=44|35=0|52=20111124-06:07:11.763|1180=JSEFTSEP|10=095|8=FIXT.1.1|9=44|35=0|52=20111124-06:07:13.764|1180=JSEFTSEP|10=098|8=FIXT.1.1|9=44|35=0|52=20111124-06:07:15.763|1180=JSEFTSEP|10=099|8=FIXT.1.1|9=44|35=0|52=20111124-06:07:17.763|1180=JSEFTSEP|10=101|8=FIXT.1.1|9=44|35=0|52=20111124-06:07:19.764|1180=JSEFTSEP|10=104|8=FIXT.1.1|9=44|35=0|52=20111124-06:07:21.763|1180=JSEFTSEP|10=096|8=FIXT.1.1|9=44|35=0|52=20111124-06:07:23.764|1180=JSEFTSEP|10=099|8=FIXT.1.1|9=44|35=0|52=20111124-06:07:25.763|1180=JSEFTSEP|10=100|8=FIXT.1.1|9=44|35=0|52=20111124-06:07:27.764|1180=JSEFTSEP|10=103|8=FIXT.1.1|9=44|35=0|52=20111124-06:07:29.767|1180=JSEFTSEP|10=108|8=FIXT.1.1|9=44|35=0|52=20111124-06:07:31.764|1180=JSEFTSEP|10=098|8=FIXT.1.1|9=44|35=0|52=20111124-06:07:33.763|1180=JSEFTSEP|10=099|8=FIXT.1.1|9=44|35=0|52=20111124-06:07:35.764|1180=JSEFTSEP|10=102|8=FIXT.1.1|9=44|35=0|52=20111124-06:07:37.768|1180=JSEFTSEP|10=108|8=FIXT.1.1|9=44|35=0|52=20111124-06:07:39.763|1180=JSEFTSEP|10=105|8=FIXT.1.1|9=44|35=0|52=20111124-06:07:41.763|1180=JSEFTSEP|10=098|8=FIXT.1.1|9=44|35=0|52=20111124-06:07:43.763|1180=JSEFTSEP|10=100|8=FIXT.1.1|9=44|35=0|52=20111124-06:07:45.763|1180=JSEFTSEP|10=102|8=FIXT.1.1|9=44|35=0|52=20111124-06:07:47.763|1180=JSEFTSEP|10=104|8=FIXT.1.1|9=44|35=0|52=20111124-06:07:49.763|1180=JSEFTSEP|10=106|8=FIXT.1.1|9=44|35=0|52=20111124-06:07:51.763|1180=JSEFTSEP|10=099|8=FIXT.1.1|9=44|35=0|52=20111124-06:07:53.768|1180=JSEFTSEP|10=106|8=FIXT.1.1|9=44|35=0|52=20111124-06:07:55.764|1180=JSEFTSEP|10=104|8=FIXT.1.1|9=44|35=0|52=20111124-06:07:57.764|1180=JSEFTSEP|10=106|8=FIXT.1.1|9=44|35=0|52=20111124-06:07:59.764|1180=JSEFTSEP|10=108|8=FIXT.1.1|9=44|35=0|52=20111124-06:08:01.763|1180=JSEFTSEP|10=095|8=FIXT.1.1|9=44|35=0|52=20111124-06:08:03.763|1180=JSEFTSEP|10=097|8=FIXT.1.1|9=44|35=0|52=20111124-06:08:05.763|1180=JSEFTSEP|10=099|8=FIXT.1.1|9=44|35=0|52=20111124-06:08:07.764|1180=JSEFTSEP|10=102|8=FIXT.1.1|9=44|35=0|52=20111124-06:08:09.764|1180=JSEFTSEP|10=104|8=FIXT.1.1|9=44|35=0|52=20111124-06:08:11.764|1180=JSEFTSEP|10=097|8=FIXT.1.1|9=44|35=0|52=20111124-06:08:13.763|1180=JSEFTSEP|10=098|8=FIXT.1.1|9=44|35=0|52=20111124-06:08:15.764|1180=JSEFTSEP|10=101|8=FIXT.1.1|9=44|35=0|52=20111124-06:08:17.763|1180=JSEFTSEP|10=102|8=FIXT.1.1|9=44|35=0|52=20111124-06:08:19.763|1180=JSEFTSEP|10=104|8=FIXT.1.1|9=44|35=0|52=20111124-06:08:21.763|1180=JSEFTSEP|10=097|8=FIXT.1.1|9=44|35=0|52=20111124-06:08:23.764|1180=JSEFTSEP|10=100|8=FIXT.1.1|9=44|35=0|52=20111124-06:08:25.764|1180=JSEFTSEP|10=102|8=FIXT.1.1|9=44|35=0|52=20111124-06:08:27.763|1180=JSEFTSEP|10=103|8=FIXT.1.1|9=44|35=0|52=20111124-06:08:29.764|1180=JSEFTSEP|10=106|8=FIXT.1.1|9=44|35=0|52=20111124-06:08:31.764|1180=JSEFTSEP|10=099|8=FIXT.1.1|9=44|35=0|52=20111124-06:08:33.763|1180=JSEFTSEP|10=100|8=FIXT.1.1|9=44|35=0|52=20111124-06:08:35.764|1180=JSEFTSEP|10=103|8=FIXT.1.1|9=44|35=0|52=20111124-06:08:37.763|1180=JSEFTSEP|10=104|8=FIXT.1.1|9=44|35=0|52=20111124-06:08:39.764|1180=JSEFTSEP|10=107|8=FIXT.1.1|9=44|35=0|52=20111124-06:08:41.763|1180=JSEFTSEP|10=099|8=FIXT.1.1|9=44|35=0|52=20111124-06:08:43.763|1180=JSEFTSEP|10=101|8=FIXT.1.1|9=44|35=0|52=20111124-06:08:45.763|1180=JSEFTSEP|10=103|8=FIXT.1.1|9=44|35=0|52=20111124-06:08:45.763|1180=JSEFTSEP|10=103|8=FIXT.1.1|9=44|35=0|52=20111124-06:08:47.767|1180=JSEFTSEP|10=109|8=FIXT.1.1|9=44|35=0|52=20111124-06:08:49.763|1180=JSEFTSEP|10=107|8=FIXT.1.1|9=44|35=0|52=20111124-06:08:51.763|1180=JSEFTSEP|10=100|8=FIXT.1.1|9=44|35=0|52=20111124-06:08:53.763|1180=JSEFTSEP|10=102|8=FIXT.1.1|9=44|35=0|52=20111124-06:08:55.767|1180=JSEFTSEP|10=108|8=FIXT.1.1|9=44|35=0|52=20111124-06:08:57.764|1180=JSEFTSEP|10=107|8=FIXT.1.1|9=44|35=0|52=20111124-06:08:59.763|1180=JSEFTSEP|10=108|8=FIXT.1.1|9=44|35=0|52=20111124-06:09:01.764|1180=JSEFTSEP|10=097|8=FIXT.1.1|9=44|35=0|52=20111124-06:09:03.763|1180=JSEFTSEP|10=098|8=FIXT.1.1|9=44|35=0|52=20111124-06:09:05.764|1180=JSEFTSEP|10=101|8=FIXT.1.1|9=44|35=0|52=20111124-06:09:07.763|1180=JSEFTSEP|10=102|8=FIXT.1.1|9=44|35=0|52=20111124-06:09:09.763|1180=JSEFTSEP|10=104|8=FIXT.1.1|9=44|35=0|52=20111124-06:09:11.763|1180=JSEFTSEP|10=097|8=FIXT.1.1|9=44|35=0|52=20111124-06:09:13.767|1180=JSEFTSEP|10=103|8=FIXT.1.1|9=44|35=0|52=20111124-06:09:15.764|1180=JSEFTSEP|10=102|8=FIXT.1.1|9=44|35=0|52=20111124-06:09:17.763|1180=JSEFTSEP|10=103|8=FIXT.1.1|9=44|35=0|52=20111124-06:09:19.764|1180=JSEFTSEP|10=106|8=FIXT.1.1|9=44|35=0|52=20111124-06:09:21.764|1180=JSEFTSEP|10=099|8=FIXT.1.1|9=44|35=0|52=20111124-06:09:23.764|1180=JSEFTSEP|10=101|8=FIXT.1.1|9=44|35=0|52=20111124-06:09:25.764|1180=JSEFTSEP|10=103|8=FIXT.1.1|9=44|35=0|52=20111124-06:09:27.764|1180=JSEFTSEP|10=105|8=FIXT.1.1|9=44|35=0|52=20111124-06:09:29.764|1180=JSEFTSEP|10=107|8=FIXT.1.1|9=44|35=0|52=20111124-06:09:31.763|1180=JSEFTSEP|10=099|8=FIXT.1.1|9=44|35=0|52=20111124-06:09:33.763|1180=JSEFTSEP|10=101|8=FIXT.1.1|9=44|35=0|52=20111124-06:09:35.763|1180=JSEFTSEP|10=103|8=FIXT.1.1|9=44|35=0|52=20111124-06:09:37.764|1180=JSEFTSEP|10=106|8=FIXT.1.1|9=44|35=0|52=20111124-06:09:39.763|1180=JSEFTSEP|10=107|8=FIXT.1.1|9=44|35=0|52=20111124-06:09:41.763|1180=JSEFTSEP|10=100|8=FIXT.1.1|9=44|35=0|52=20111124-06:09:43.763|1180=JSEFTSEP|10=102|8=FIXT.1.1|9=44|35=0|52=20111124-06:09:45.764|1180=JSEFTSEP|10=105|8=FIXT.1.1|9=44|35=0|52=20111124-06:09:47.764|1180=JSEFTSEP|10=107|8=FIXT.1.1|9=44|35=0|52=20111124-06:09:49.764|1180=JSEFTSEP|10=109|8=FIXT.1.1|9=44|35=0|52=20111124-06:09:51.764|1180=JSEFTSEP|10=102|8=FIXT.1.1|9=44|35=0|52=20111124-06:09:53.763|1180=JSEFTSEP|10=103|8=FIXT.1.1|9=44|35=0|52=20111124-06:09:55.763|1180=JSEFTSEP|10=105|8=FIXT.1.1|9=44|35=0|52=20111124-06:09:57.763|1180=JSEFTSEP|10=107|8=FIXT.1.1|9=44|35=0|52=20111124-06:09:59.763|1180=JSEFTSEP|10=109|8=FIXT.1.1|9=44|35=0|52=20111124-06:10:01.763|1180=JSEFTSEP|10=088|8=FIXT.1.1|9=44|35=0|52=20111124-06:10:03.764|1180=JSEFTSEP|10=091|8=FIXT.1.1|9=44|35=0|52=20111124-06:10:05.763|1180=JSEFTSEP|10=092|8=FIXT.1.1|9=44|35=0|52=20111124-06:10:07.763|1180=JSEFTSEP|10=094|8=FIXT.1.1|9=44|35=0|52=20111124-06:10:09.763|1180=JSEFTSEP|10=096|8=FIXT.1.1|9=44|35=0|52=20111124-06:10:11.763|1180=JSEFTSEP|10=089|8=FIXT.1.1|9=44|35=0|52=20111124-06:10:13.763|1180=JSEFTSEP|10=091|8=FIXT.1.1|9=44|35=0|52=20111124-06:10:15.763|1180=JSEFTSEP|10=093|8=FIXT.1.1|9=44|35=0|52=20111124-06:10:17.764|1180=JSEFTSEP|10=096|8=FIXT.1.1|9=44|35=0|52=20111124-06:10:19.763|1180=JSEFTSEP|10=097|8=FIXT.1.1|9=44|35=0|52=20111124-06:10:21.763|1180=JSEFTSEP|10=090|8=FIXT.1.1|9=44|35=0|52=20111124-06:10:23.764|1180=JSEFTSEP|10=093|8=FIXT.1.1|9=44|35=0|52=20111124-06:10:25.763|1180=JSEFTSEP|10=094|8=FIXT.1.1|9=44|35=0|52=20111124-06:10:27.763|1180=JSEFTSEP|10=096|8=FIXT.1.1|9=44|35=0|52=20111124-06:10:29.764|1180=JSEFTSEP|10=099|8=FIXT.1.1|9=44|35=0|52=20111124-06:10:31.763|1180=JSEFTSEP|10=091|8=FIXT.1.1|9=44|35=0|52=20111124-06:10:33.764|1180=JSEFTSEP|10=094|8=FIXT.1.1|9=44|35=0|52=20111124-06:10:35.768|1180=JSEFTSEP|10=100|8=FIXT.1.1|9=44|35=0|52=20111124-06:10:37.763|1180=JSEFTSEP|10=097|8=FIXT.1.1|9=44|35=0|52=20111124-06:10:39.763|1180=JSEFTSEP|10=099|8=FIXT.1.1|9=44|35=0|52=20111124-06:10:41.763|1180=JSEFTSEP|10=092|8=FIXT.1.1|9=44|35=0|52=20111124-06:10:43.767|1180=JSEFTSEP|10=098|8=FIXT.1.1|9=44|35=0|52=20111124-06:10:45.764|1180=JSEFTSEP|10=097|8=FIXT.1.1|9=44|35=0|52=20111124-06:10:47.764|1180=JSEFTSEP|10=099|8=FIXT.1.1|9=44|35=0|52=20111124-06:10:49.764|1180=JSEFTSEP|10=101|8=FIXT.1.1|9=44|35=0|52=20111124-06:10:51.763|1180=JSEFTSEP|10=093|8=FIXT.1.1|9=44|35=0|52=20111124-06:10:53.763|1180=JSEFTSEP|10=095|8=FIXT.1.1|9=44|35=0|52=20111124-06:10:55.763|1180=JSEFTSEP|10=097|8=FIXT.1.1|9=44|35=0|52=20111124-06:10:57.763|1180=JSEFTSEP|10=099|8=FIXT.1.1|9=44|35=0|52=20111124-06:10:59.763|1180=JSEFTSEP|10=101|8=FIXT.1.1|9=44|35=0|52=20111124-06:11:01.764|1180=JSEFTSEP|10=090|8=FIXT.1.1|9=44|35=0|52=20111124-06:11:03.763|1180=JSEFTSEP|10=091|8=FIXT.1.1|9=44|35=0|52=20111124-06:11:05.764|1180=JSEFTSEP|10=094|8=FIXT.1.1|9=44|35=0|52=20111124-06:11:07.763|1180=JSEFTSEP|10=095|8=FIXT.1.1|9=44|35=0|52=20111124-06:11:09.767|1180=JSEFTSEP|10=101|8=FIXT.1.1|9=44|35=0|52=20111124-06:11:11.764|1180=JSEFTSEP|10=091|8=FIXT.1.1|9=44|35=0|52=20111124-06:11:13.764|1180=JSEFTSEP|10=093|8=FIXT.1.1|9=44|35=0|52=20111124-06:11:15.764|1180=JSEFTSEP|10=095|8=FIXT.1.1|9=44|35=0|52=20111124-06:11:17.764|1180=JSEFTSEP|10=097|8=FIXT.1.1|9=44|35=0|52=20111124-06:11:19.763|1180=JSEFTSEP|10=098|8=FIXT.1.1|9=44|35=0|52=20111124-06:11:21.763|1180=JSEFTSEP|10=091|8=FIXT.1.1|9=44|35=0|52=20111124-06:11:23.763|1180=JSEFTSEP|10=093|8=FIXT.1.1|9=44|35=0|52=20111124-06:11:25.764|1180=JSEFTSEP|10=096|8=FIXT.1.1|9=44|35=0|52=20111124-06:11:27.763|1180=JSEFTSEP|10=097|8=FIXT.1.1|9=44|35=0|52=20111124-06:11:29.763|1180=JSEFTSEP|10=099|8=FIXT.1.1|9=44|35=0|52=20111124-06:11:31.763|1180=JSEFTSEP|10=092|8=FIXT.1.1|9=44|35=0|52=20111124-06:11:33.763|1180=JSEFTSEP|10=094|8=FIXT.1.1|9=44|35=0|52=20111124-06:11:35.764|1180=JSEFTSEP|10=097|8=FIXT.1.1|9=44|35=0|52=20111124-06:11:37.763|1180=JSEFTSEP|10=098|8=FIXT.1.1|9=44|35=0|52=20111124-06:11:39.764|1180=JSEFTSEP|10=101|8=FIXT.1.1|9=44|35=0|52=20111124-06:11:41.764|1180=JSEFTSEP|10=094|8=FIXT.1.1|9=44|35=0|52=20111124-06:11:43.764|1180=JSEFTSEP|10=096|8=FIXT.1.1|9=44|35=0|52=20111124-06:11:45.763|1180=JSEFTSEP|10=097|8=FIXT.1.1|9=44|35=0|52=20111124-06:11:47.763|1180=JSEFTSEP|10=099|8=FIXT.1.1|9=44|35=0|52=20111124-06:11:49.767|1180=JSEFTSEP|10=105|8=FIXT.1.1|9=44|35=0|52=20111124-06:11:51.763|1180=JSEFTSEP|10=094|8=FIXT.1.1|9=44|35=0|52=20111124-06:11:53.763|1180=JSEFTSEP|10=096|8=FIXT.1.1|9=44|35=0|52=20111124-06:11:55.764|1180=JSEFTSEP|10=099|8=FIXT.1.1|9=44|35=0|52=20111124-06:11:57.763|1180=JSEFTSEP|10=100|8=FIXT.1.1|9=44|35=0|52=20111124-06:11:59.764|1180=JSEFTSEP|10=103|8=FIXT.1.1|9=44|35=0|52=20111124-06:12:01.764|1180=JSEFTSEP|10=091|8=FIXT.1.1|9=44|35=0|52=20111124-06:12:03.763|1180=JSEFTSEP|10=092|8=FIXT.1.1|9=44|35=0|52=20111124-06:12:05.763|1180=JSEFTSEP|10=094|8=FIXT.1.1|9=44|35=0|52=20111124-06:12:07.763|1180=JSEFTSEP|10=096|8=FIXT.1.1|9=44|35=0|52=20111124-06:12:09.764|1180=JSEFTSEP|10=099|8=FIXT.1.1|9=44|35=0|52=20111124-06:12:11.763|1180=JSEFTSEP|10=091|8=FIXT.1.1|9=44|35=0|52=20111124-06:12:13.763|1180=JSEFTSEP|10=093|8=FIXT.1.1|9=44|35=0|52=20111124-06:12:15.764|1180=JSEFTSEP|10=096|8=FIXT.1.1|9=44|35=0|52=20111124-06:12:17.763|1180=JSEFTSEP|10=097|8=FIXT.1.1|9=44|35=0|52=20111124-06:12:19.764|1180=JSEFTSEP|10=100|8=FIXT.1.1|9=44|35=0|52=20111124-06:12:21.764|1180=JSEFTSEP|10=093|8=FIXT.1.1|9=44|35=0|52=20111124-06:12:23.763|1180=JSEFTSEP|10=094|8=FIXT.1.1|9=44|35=0|52=20111124-06:12:25.764|1180=JSEFTSEP|10=097|8=FIXT.1.1|9=44|35=0|52=20111124-06:12:27.763|1180=JSEFTSEP|10=098|8=FIXT.1.1|9=44|35=0|52=20111124-06:12:29.763|1180=JSEFTSEP|10=100|8=FIXT.1.1|9=44|35=0|52=20111124-06:12:31.763|1180=JSEFTSEP|10=093|8=FIXT.1.1|9=44|35=0|52=20111124-06:12:33.763|1180=JSEFTSEP|10=095|8=FIXT.1.1|9=44|35=0|52=20111124-06:12:35.764|1180=JSEFTSEP|10=098|8=FIXT.1.1|9=44|35=0|52=20111124-06:12:37.763|1180=JSEFTSEP|10=099|8=FIXT.1.1|9=44|35=0|52=20111124-06:12:39.763|1180=JSEFTSEP|10=101|8=FIXT.1.1|9=44|35=0|52=20111124-06:12:41.763|1180=JSEFTSEP|10=094|8=FIXT.1.1|9=44|35=0|52=20111124-06:12:43.763|1180=JSEFTSEP|10=096|8=FIXT.1.1|9=44|35=0|52=20111124-06:12:45.763|1180=JSEFTSEP|10=098|8=FIXT.1.1|9=44|35=0|52=20111124-06:12:47.763|1180=JSEFTSEP|10=100|8=FIXT.1.1|9=44|35=0|52=20111124-06:12:49.764|1180=JSEFTSEP|10=103|8=FIXT.1.1|9=44|35=0|52=20111124-06:12:51.763|1180=JSEFTSEP|10=095|8=FIXT.1.1|9=44|35=0|52=20111124-06:12:53.763|1180=JSEFTSEP|10=097|8=FIXT.1.1|9=44|35=0|52=20111124-06:12:55.763|1180=JSEFTSEP|10=099|8=FIXT.1.1|9=44|35=0|52=20111124-06:12:57.764|1180=JSEFTSEP|10=102|8=FIXT.1.1|9=44|35=0|52=20111124-06:12:59.763|1180=JSEFTSEP|10=103|8=FIXT.1.1|9=44|35=0|52=20111124-06:13:01.763|1180=JSEFTSEP|10=091|8=FIXT.1.1|9=44|35=0|52=20111124-06:13:03.764|1180=JSEFTSEP|10=094|8=FIXT.1.1|9=44|35=0|52=20111124-06:13:05.763|1180=JSEFTSEP|10=095|8=FIXT.1.1|9=44|35=0|52=20111124-06:13:07.763|1180=JSEFTSEP|10=097|8=FIXT.1.1|9=44|35=0|52=20111124-06:13:09.763|1180=JSEFTSEP|10=099|8=FIXT.1.1|9=44|35=0|52=20111124-06:13:11.764|1180=JSEFTSEP|10=093|8=FIXT.1.1|9=44|35=0|52=20111124-06:13:13.763|1180=JSEFTSEP|10=094|8=FIXT.1.1|9=44|35=0|52=20111124-06:13:15.763|1180=JSEFTSEP|10=096|8=FIXT.1.1|9=44|35=0|52=20111124-06:13:17.763|1180=JSEFTSEP|10=098|8=FIXT.1.1|9=44|35=0|52=20111124-06:13:19.768|1180=JSEFTSEP|10=105|8=FIXT.1.1|9=44|35=0|52=20111124-06:13:21.764|1180=JSEFTSEP|10=094|8=FIXT.1.1|9=44|35=0|52=20111124-06:13:21.764|1180=JSEFTSEP|10=094|8=FIXT.1.1|9=44|35=0|52=20111124-06:13:23.763|1180=JSEFTSEP|10=095|8=FIXT.1.1|9=44|35=0|52=20111124-06:13:25.763|1180=JSEFTSEP|10=097|8=FIXT.1.1|9=44|35=0|52=20111124-06:13:27.767|1180=JSEFTSEP|10=103|8=FIXT.1.1|9=44|35=0|52=20111124-06:13:29.763|1180=JSEFTSEP|10=101|8=FIXT.1.1|9=44|35=0|52=20111124-06:13:31.763|1180=JSEFTSEP|10=094|8=FIXT.1.1|9=44|35=0|52=20111124-06:13:33.763|1180=JSEFTSEP|10=096|8=FIXT.1.1|9=44|35=0|52=20111124-06:13:35.764|1180=JSEFTSEP|10=099|8=FIXT.1.1|9=44|35=0|52=20111124-06:13:37.763|1180=JSEFTSEP|10=100|8=FIXT.1.1|9=44|35=0|52=20111124-06:13:39.764|1180=JSEFTSEP|10=103|8=FIXT.1.1|9=44|35=0|52=20111124-06:13:41.763|1180=JSEFTSEP|10=095|8=FIXT.1.1|9=44|35=0|52=20111124-06:13:43.763|1180=JSEFTSEP|10=097|8=FIXT.1.1|9=44|35=0|52=20111124-06:13:45.763|1180=JSEFTSEP|10=099|8=FIXT.1.1|9=44|35=0|52=20111124-06:13:47.764|1180=JSEFTSEP|10=102|8=FIXT.1.1|9=44|35=0|52=20111124-06:13:49.763|1180=JSEFTSEP|10=103|8=FIXT.1.1|9=44|35=0|52=20111124-06:13:51.764|1180=JSEFTSEP|10=097|8=FIXT.1.1|9=44|35=0|52=20111124-06:13:53.763|1180=JSEFTSEP|10=098|8=FIXT.1.1|9=44|35=0|52=20111124-06:13:55.763|1180=JSEFTSEP|10=100|8=FIXT.1.1|9=44|35=0|52=20111124-06:13:57.763|1180=JSEFTSEP|10=102|8=FIXT.1.1|9=44|35=0|52=20111124-06:13:59.764|1180=JSEFTSEP|10=105|8=FIXT.1.1|9=44|35=0|52=20111124-06:14:01.764|1180=JSEFTSEP|10=093|8=FIXT.1.1|9=44|35=0|52=20111124-06:14:03.763|1180=JSEFTSEP|10=094|8=FIXT.1.1|9=44|35=0|52=20111124-06:14:05.763|1180=JSEFTSEP|10=096|8=FIXT.1.1|9=44|35=0|52=20111124-06:14:07.763|1180=JSEFTSEP|10=098|8=FIXT.1.1|9=44|35=0|52=20111124-06:14:09.763|1180=JSEFTSEP|10=100|8=FIXT.1.1|9=44|35=0|52=20111124-06:14:11.764|1180=JSEFTSEP|10=094|8=FIXT.1.1|9=44|35=0|52=20111124-06:14:13.763|1180=JSEFTSEP|10=095|8=FIXT.1.1|9=44|35=0|52=20111124-06:14:15.764|1180=JSEFTSEP|10=098|8=FIXT.1.1|9=44|35=0|52=20111124-06:14:17.763|1180=JSEFTSEP|10=099|8=FIXT.1.1|9=44|35=0|52=20111124-06:14:19.763|1180=JSEFTSEP|10=101|8=FIXT.1.1|9=44|35=0|52=20111124-06:14:21.764|1180=JSEFTSEP|10=095|8=FIXT.1.1|9=44|35=0|52=20111124-06:14:23.763|1180=JSEFTSEP|10=096|8=FIXT.1.1|9=44|35=0|52=20111124-06:14:25.763|1180=JSEFTSEP|10=098|8=FIXT.1.1|9=44|35=0|52=20111124-06:14:27.764|1180=JSEFTSEP|10=101|8=FIXT.1.1|9=44|35=0|52=20111124-06:14:29.764|1180=JSEFTSEP|10=103|8=FIXT.1.1|9=44|35=0|52=20111124-06:14:31.767|1180=JSEFTSEP|10=099|8=FIXT.1.1|9=44|35=0|52=20111124-06:14:33.763|1180=JSEFTSEP|10=097|8=FIXT.1.1|9=44|35=0|52=20111124-06:14:35.763|1180=JSEFTSEP|10=099|8=FIXT.1.1|9=44|35=0|52=20111124-06:14:37.763|1180=JSEFTSEP|10=101|8=FIXT.1.1|9=44|35=0|52=20111124-06:14:39.768|1180=JSEFTSEP|10=108|8=FIXT.1.1|9=44|35=0|52=20111124-06:14:41.763|1180=JSEFTSEP|10=096|8=FIXT.1.1|9=44|35=0|52=20111124-06:14:43.764|1180=JSEFTSEP|10=099|8=FIXT.1.1|9=44|35=0|52=20111124-06:14:45.764|1180=JSEFTSEP|10=101|8=FIXT.1.1|9=44|35=0|52=20111124-06:14:47.763|1180=JSEFTSEP|10=102|8=FIXT.1.1|9=44|35=0|52=20111124-06:14:49.764|1180=JSEFTSEP|10=105|8=FIXT.1.1|9=44|35=0|52=20111124-06:14:51.764|1180=JSEFTSEP|10=098|8=FIXT.1.1|9=44|35=0|52=20111124-06:14:53.763|1180=JSEFTSEP|10=099|8=FIXT.1.1|9=44|35=0|52=20111124-06:14:55.763|1180=JSEFTSEP|10=101|8=FIXT.1.1|9=44|35=0|52=20111124-06:14:57.763|1180=JSEFTSEP|10=103|8=FIXT.1.1|9=44|35=0|52=20111124-06:14:59.763|1180=JSEFTSEP|10=105|8=FIXT.1.1|9=44|35=0|52=20111124-06:15:01.764|1180=JSEFTSEP|10=094|8=FIXT.1.1|9=44|35=0|52=20111124-06:15:03.764|1180=JSEFTSEP|10=096|8=FIXT.1.1|9=44|35=0|52=20111124-06:15:05.763|1180=JSEFTSEP|10=097|8=FIXT.1.1|9=44|35=0|52=20111124-06:15:07.764|1180=JSEFTSEP|10=100|8=FIXT.1.1|9=44|35=0|52=20111124-06:15:09.764|1180=JSEFTSEP|10=102|8=FIXT.1.1|9=44|35=0|52=20111124-06:15:11.764|1180=JSEFTSEP|10=095|8=FIXT.1.1|9=44|35=0|52=20111124-06:15:13.764|1180=JSEFTSEP|10=097|8=FIXT.1.1|9=44|35=0|52=20111124-06:15:15.763|1180=JSEFTSEP|10=098|8=FIXT.1.1|9=44|35=0|52=20111124-06:15:17.763|1180=JSEFTSEP|10=100|8=FIXT.1.1|9=44|35=0|52=20111124-06:15:19.764|1180=JSEFTSEP|10=103|8=FIXT.1.1|9=44|35=0|52=20111124-06:15:21.764|1180=JSEFTSEP|10=096|8=FIXT.1.1|9=44|35=0|52=20111124-06:15:23.763|1180=JSEFTSEP|10=097|8=FIXT.1.1|9=44|35=0|52=20111124-06:15:25.764|1180=JSEFTSEP|10=100|8=FIXT.1.1|9=44|35=0|52=20111124-06:15:27.763|1180=JSEFTSEP|10=101|8=FIXT.1.1|9=44|35=0|52=20111124-06:15:29.763|1180=JSEFTSEP|10=103|8=FIXT.1.1|9=44|35=0|52=20111124-06:15:31.763|1180=JSEFTSEP|10=096|8=FIXT.1.1|9=44|35=0|52=20111124-06:15:33.764|1180=JSEFTSEP|10=099|8=FIXT.1.1|9=44|35=0|52=20111124-06:15:35.764|1180=JSEFTSEP|10=101|8=FIXT.1.1|9=44|35=0|52=20111124-06:15:37.763|1180=JSEFTSEP|10=102|8=FIXT.1.1|9=44|35=0|52=20111124-06:15:39.763|1180=JSEFTSEP|10=104|8=FIXT.1.1|9=44|35=0|52=20111124-06:15:41.764|1180=JSEFTSEP|10=098|8=FIXT.1.1|9=44|35=0|52=20111124-06:15:43.763|1180=JSEFTSEP|10=099|8=FIXT.1.1|9=44|35=0|52=20111124-06:15:45.763|1180=JSEFTSEP|10=101|8=FIXT.1.1|9=44|35=0|52=20111124-06:15:47.763|1180=JSEFTSEP|10=103|8=FIXT.1.1|9=44|35=0|52=20111124-06:15:49.764|1180=JSEFTSEP|10=106|8=FIXT.1.1|9=44|35=0|52=20111124-06:15:51.764|1180=JSEFTSEP|10=099|8=FIXT.1.1|9=44|35=0|52=20111124-06:15:53.763|1180=JSEFTSEP|10=100|8=FIXT.1.1|9=44|35=0|52=20111124-06:15:55.763|1180=JSEFTSEP|10=102|8=FIXT.1.1|9=44|35=0|52=20111124-06:15:57.764|1180=JSEFTSEP|10=105|8=FIXT.1.1|9=44|35=0|52=20111124-06:15:59.764|1180=JSEFTSEP|10=107|8=FIXT.1.1|9=44|35=0|52=20111124-06:16:01.763|1180=JSEFTSEP|10=094|8=FIXT.1.1|9=44|35=0|52=20111124-06:16:03.764|1180=JSEFTSEP|10=097|8=FIXT.1.1|9=44|35=0|52=20111124-06:16:05.763|1180=JSEFTSEP|10=098|8=FIXT.1.1|9=44|35=0|52=20111124-06:16:07.763|1180=JSEFTSEP|10=100|8=FIXT.1.1|9=44|35=0|52=20111124-06:16:09.764|1180=JSEFTSEP|10=103|8=FIXT.1.1|9=44|35=0|52=20111124-06:16:11.763|1180=JSEFTSEP|10=095|8=FIXT.1.1|9=44|35=0|52=20111124-06:16:13.763|1180=JSEFTSEP|10=097|8=FIXT.1.1|9=44|35=0|52=20111124-06:16:15.764|1180=JSEFTSEP|10=100|8=FIXT.1.1|9=44|35=0|52=20111124-06:16:17.764|1180=JSEFTSEP|10=102|8=FIXT.1.1|9=44|35=0|52=20111124-06:16:19.764|1180=JSEFTSEP|10=104|8=FIXT.1.1|9=44|35=0|52=20111124-06:16:21.764|1180=JSEFTSEP|10=097|8=FIXT.1.1|9=44|35=0|52=20111124-06:16:23.764|1180=JSEFTSEP|10=099|8=FIXT.1.1|9=44|35=0|52=20111124-06:16:25.763|1180=JSEFTSEP|10=100|8=FIXT.1.1|9=44|35=0|52=20111124-06:16:27.763|1180=JSEFTSEP|10=102|8=FIXT.1.1|9=44|35=0|52=20111124-06:16:29.763|1180=JSEFTSEP|10=104|8=FIXT.1.1|9=44|35=0|52=20111124-06:16:31.764|1180=JSEFTSEP|10=098|8=FIXT.1.1|9=44|35=0|52=20111124-06:16:33.767|1180=JSEFTSEP|10=103|8=FIXT.1.1|9=44|35=0|52=20111124-06:16:35.763|1180=JSEFTSEP|10=101|8=FIXT.1.1|9=44|35=0|52=20111124-06:16:37.764|1180=JSEFTSEP|10=104|8=FIXT.1.1|9=44|35=0|52=20111124-06:16:39.763|1180=JSEFTSEP|10=105|8=FIXT.1.1|9=44|35=0|52=20111124-06:16:41.764|1180=JSEFTSEP|10=099|8=FIXT.1.1|9=44|35=0|52=20111124-06:16:43.763|1180=JSEFTSEP|10=100|8=FIXT.1.1|9=44|35=0|52=20111124-06:16:45.763|1180=JSEFTSEP|10=102|8=FIXT.1.1|9=44|35=0|52=20111124-06:16:47.763|1180=JSEFTSEP|10=104|8=FIXT.1.1|9=44|35=0|52=20111124-06:16:49.764|1180=JSEFTSEP|10=107|8=FIXT.1.1|9=44|35=0|52=20111124-06:16:51.763|1180=JSEFTSEP|10=099|8=FIXT.1.1|9=44|35=0|52=20111124-06:16:53.763|1180=JSEFTSEP|10=101|8=FIXT.1.1|9=44|35=0|52=20111124-06:16:55.763|1180=JSEFTSEP|10=103|8=FIXT.1.1|9=44|35=0|52=20111124-06:16:57.763|1180=JSEFTSEP|10=105|8=FIXT.1.1|9=44|35=0|52=20111124-06:16:59.763|1180=JSEFTSEP|10=107|8=FIXT.1.1|9=44|35=0|52=20111124-06:17:01.763|1180=JSEFTSEP|10=095|8=FIXT.1.1|9=44|35=0|52=20111124-06:17:03.763|1180=JSEFTSEP|10=097|8=FIXT.1.1|9=44|35=0|52=20111124-06:17:05.763|1180=JSEFTSEP|10=099|8=FIXT.1.1|9=44|35=0|52=20111124-06:17:07.763|1180=JSEFTSEP|10=101|8=FIXT.1.1|9=44|35=0|52=20111124-06:17:09.764|1180=JSEFTSEP|10=104|8=FIXT.1.1|9=44|35=0|52=20111124-06:17:11.763|1180=JSEFTSEP|10=096|8=FIXT.1.1|9=44|35=0|52=20111124-06:17:13.763|1180=JSEFTSEP|10=098|8=FIXT.1.1|9=44|35=0|52=20111124-06:17:15.763|1180=JSEFTSEP|10=100|8=FIXT.1.1|9=44|35=0|52=20111124-06:17:17.763|1180=JSEFTSEP|10=102|8=FIXT.1.1|9=44|35=0|52=20111124-06:17:19.768|1180=JSEFTSEP|10=109|8=FIXT.1.1|9=44|35=0|52=20111124-06:17:21.767|1180=JSEFTSEP|10=101|8=FIXT.1.1|9=44|35=0|52=20111124-06:17:23.764|1180=JSEFTSEP|10=100|8=FIXT.1.1|9=44|35=0|52=20111124-06:17:25.763|1180=JSEFTSEP|10=101|8=FIXT.1.1|9=44|35=0|52=20111124-06:17:27.763|1180=JSEFTSEP|10=103|8=FIXT.1.1|9=44|35=0|52=20111124-06:17:29.763|1180=JSEFTSEP|10=105|8=FIXT.1.1|9=44|35=0|52=20111124-06:17:31.764|1180=JSEFTSEP|10=099|8=FIXT.1.1|9=44|35=0|52=20111124-06:17:33.763|1180=JSEFTSEP|10=100|8=FIXT.1.1|9=44|35=0|52=20111124-06:17:35.764|1180=JSEFTSEP|10=103|8=FIXT.1.1|9=44|35=0|52=20111124-06:17:37.763|1180=JSEFTSEP|10=104|8=FIXT.1.1|9=44|35=0|52=20111124-06:17:39.763|1180=JSEFTSEP|10=106|8=FIXT.1.1|9=44|35=0|52=20111124-06:17:41.763|1180=JSEFTSEP|10=099|8=FIXT.1.1|9=44|35=0|52=20111124-06:17:43.764|1180=JSEFTSEP|10=102|8=FIXT.1.1|9=44|35=0|52=20111124-06:17:45.763|1180=JSEFTSEP|10=103|8=FIXT.1.1|9=44|35=0|52=20111124-06:17:47.764|1180=JSEFTSEP|10=106|8=FIXT.1.1|9=44|35=0|52=20111124-06:17:49.763|1180=JSEFTSEP|10=107|8=FIXT.1.1|9=44|35=0|52=20111124-06:17:51.763|1180=JSEFTSEP|10=100|8=FIXT.1.1|9=44|35=0|52=20111124-06:17:53.763|1180=JSEFTSEP|10=102|8=FIXT.1.1|9=44|35=0|52=20111124-06:17:55.763|1180=JSEFTSEP|10=104|8=FIXT.1.1|9=44|35=0|52=20111124-06:17:57.764|1180=JSEFTSEP|10=107|8=FIXT.1.1|9=44|35=0|52=20111124-06:17:57.764|1180=JSEFTSEP|10=107|8=FIXT.1.1|9=44|35=0|52=20111124-06:17:59.764|1180=JSEFTSEP|10=109|8=FIXT.1.1|9=44|35=0|52=20111124-06:18:01.763|1180=JSEFTSEP|10=096|8=FIXT.1.1|9=44|35=0|52=20111124-06:18:03.763|1180=JSEFTSEP|10=098|8=FIXT.1.1|9=44|35=0|52=20111124-06:18:05.764|1180=JSEFTSEP|10=101|8=FIXT.1.1|9=44|35=0|52=20111124-06:18:07.764|1180=JSEFTSEP|10=103|8=FIXT.1.1|9=44|35=0|52=20111124-06:18:09.763|1180=JSEFTSEP|10=104|8=FIXT.1.1|9=44|35=0|52=20111124-06:18:11.763|1180=JSEFTSEP|10=097|8=FIXT.1.1|9=44|35=0|52=20111124-06:18:13.764|1180=JSEFTSEP|10=100|8=FIXT.1.1|9=44|35=0|52=20111124-06:18:15.767|1180=JSEFTSEP|10=105|8=FIXT.1.1|9=44|35=0|52=20111124-06:18:17.764|1180=JSEFTSEP|10=104|8=FIXT.1.1|9=44|35=0|52=20111124-06:18:19.763|1180=JSEFTSEP|10=105|8=FIXT.1.1|9=44|35=0|52=20111124-06:18:21.763|1180=JSEFTSEP|10=098|8=FIXT.1.1|9=44|35=0|52=20111124-06:18:23.763|1180=JSEFTSEP|10=100|8=FIXT.1.1|9=44|35=0|52=20111124-06:18:25.763|1180=JSEFTSEP|10=102|8=FIXT.1.1|9=44|35=0|52=20111124-06:18:27.764|1180=JSEFTSEP|10=105|8=FIXT.1.1|9=44|35=0|52=20111124-06:18:29.763|1180=JSEFTSEP|10=106|8=FIXT.1.1|9=44|35=0|52=20111124-06:18:31.764|1180=JSEFTSEP|10=100|8=FIXT.1.1|9=44|35=0|52=20111124-06:18:33.763|1180=JSEFTSEP|10=101|8=FIXT.1.1|9=44|35=0|52=20111124-06:18:35.763|1180=JSEFTSEP|10=103|8=FIXT.1.1|9=44|35=0|52=20111124-06:18:37.764|1180=JSEFTSEP|10=106|8=FIXT.1.1|9=44|35=0|52=20111124-06:18:39.764|1180=JSEFTSEP|10=108|8=FIXT.1.1|9=44|35=0|52=20111124-06:18:41.763|1180=JSEFTSEP|10=100|8=FIXT.1.1|9=44|35=0|52=20111124-06:18:43.763|1180=JSEFTSEP|10=102|8=FIXT.1.1|9=44|35=0|52=20111124-06:18:45.763|1180=JSEFTSEP|10=104|8=FIXT.1.1|9=44|35=0|52=20111124-06:18:47.763|1180=JSEFTSEP|10=106|8=FIXT.1.1|9=44|35=0|52=20111124-06:18:49.768|1180=JSEFTSEP|10=113|8=FIXT.1.1|9=44|35=0|52=20111124-06:18:51.764|1180=JSEFTSEP|10=102|8=FIXT.1.1|9=44|35=0|52=20111124-06:18:53.764|1180=JSEFTSEP|10=104|8=FIXT.1.1|9=44|35=0|52=20111124-06:18:55.764|1180=JSEFTSEP|10=106|8=FIXT.1.1|9=44|35=0|52=20111124-06:18:57.764|1180=JSEFTSEP|10=108|8=FIXT.1.1|9=44|35=0|52=20111124-06:18:59.764|1180=JSEFTSEP|10=110|8=FIXT.1.1|9=44|35=0|52=20111124-06:19:01.764|1180=JSEFTSEP|10=098|8=FIXT.1.1|9=44|35=0|52=20111124-06:19:03.763|1180=JSEFTSEP|10=099|8=FIXT.1.1|9=44|35=0|52=20111124-06:19:05.764|1180=JSEFTSEP|10=102|8=FIXT.1.1|9=44|35=0|52=20111124-06:19:07.764|1180=JSEFTSEP|10=104|8=FIXT.1.1|9=44|35=0|52=20111124-06:19:09.763|1180=JSEFTSEP|10=105|8=FIXT.1.1|9=44|35=0|52=20111124-06:19:11.767|1180=JSEFTSEP|10=102|8=FIXT.1.1|9=44|35=0|52=20111124-06:19:13.767|1180=JSEFTSEP|10=104|8=FIXT.1.1|9=44|35=0|52=20111124-06:19:15.763|1180=JSEFTSEP|10=102|8=FIXT.1.1|9=44|35=0|52=20111124-06:19:17.764|1180=JSEFTSEP|10=105|8=FIXT.1.1|9=44|35=0|52=20111124-06:19:19.763|1180=JSEFTSEP|10=106|8=FIXT.1.1|9=44|35=0|52=20111124-06:19:21.763|1180=JSEFTSEP|10=099|8=FIXT.1.1|9=44|35=0|52=20111124-06:19:23.764|1180=JSEFTSEP|10=102|8=FIXT.1.1|9=44|35=0|52=20111124-06:19:25.763|1180=JSEFTSEP|10=103|8=FIXT.1.1|9=44|35=0|52=20111124-06:19:27.764|1180=JSEFTSEP|10=106|8=FIXT.1.1|9=44|35=0|52=20111124-06:19:29.763|1180=JSEFTSEP|10=107|8=FIXT.1.1|9=44|35=0|52=20111124-06:19:31.763|1180=JSEFTSEP|10=100|8=FIXT.1.1|9=44|35=0|52=20111124-06:19:33.763|1180=JSEFTSEP|10=102|8=FIXT.1.1|9=44|35=0|52=20111124-06:19:35.763|1180=JSEFTSEP|10=104|8=FIXT.1.1|9=44|35=0|52=20111124-06:19:37.764|1180=JSEFTSEP|10=107|8=FIXT.1.1|9=44|35=0|52=20111124-06:19:39.764|1180=JSEFTSEP|10=109|8=FIXT.1.1|9=44|35=0|52=20111124-06:19:41.764|1180=JSEFTSEP|10=102|8=FIXT.1.1|9=44|35=0|52=20111124-06:19:43.767|1180=JSEFTSEP|10=107|8=FIXT.1.1|9=44|35=0|52=20111124-06:19:45.763|1180=JSEFTSEP|10=105|8=FIXT.1.1|9=44|35=0|52=20111124-06:19:47.763|1180=JSEFTSEP|10=107|8=FIXT.1.1|9=44|35=0|52=20111124-06:19:49.763|1180=JSEFTSEP|10=109|8=FIXT.1.1|9=44|35=0|52=20111124-06:19:51.763|1180=JSEFTSEP|10=102|8=FIXT.1.1|9=44|35=0|52=20111124-06:19:53.763|1180=JSEFTSEP|10=104|8=FIXT.1.1|9=44|35=0|52=20111124-06:19:55.764|1180=JSEFTSEP|10=107|8=FIXT.1.1|9=44|35=0|52=20111124-06:19:57.764|1180=JSEFTSEP|10=109|8=FIXT.1.1|9=44|35=0|52=20111124-06:19:59.763|1180=JSEFTSEP|10=110|8=FIXT.1.1|9=44|35=0|52=20111124-06:20:01.763|1180=JSEFTSEP|10=089|8=FIXT.1.1|9=44|35=0|52=20111124-06:20:03.763|1180=JSEFTSEP|10=091|8=FIXT.1.1|9=44|35=0|52=20111124-06:20:05.763|1180=JSEFTSEP|10=093|8=FIXT.1.1|9=44|35=0|52=20111124-06:20:07.767|1180=JSEFTSEP|10=099|8=FIXT.1.1|9=44|35=0|52=20111124-06:20:09.763|1180=JSEFTSEP|10=097|8=FIXT.1.1|9=44|35=0|52=20111124-06:20:11.763|1180=JSEFTSEP|10=090|8=FIXT.1.1|9=44|35=0|52=20111124-06:20:13.763|1180=JSEFTSEP|10=092|8=FIXT.1.1|9=44|35=0|52=20111124-06:20:15.764|1180=JSEFTSEP|10=095|8=FIXT.1.1|9=44|35=0|52=20111124-06:20:17.763|1180=JSEFTSEP|10=096|8=FIXT.1.1|9=44|35=0|52=20111124-06:20:19.764|1180=JSEFTSEP|10=099|8=FIXT.1.1|9=44|35=0|52=20111124-06:20:21.763|1180=JSEFTSEP|10=091|8=FIXT.1.1|9=44|35=0|52=20111124-06:20:23.764|1180=JSEFTSEP|10=094|8=FIXT.1.1|9=44|35=0|52=20111124-06:20:25.763|1180=JSEFTSEP|10=095|8=FIXT.1.1|9=44|35=0|52=20111124-06:20:27.763|1180=JSEFTSEP|10=097|8=FIXT.1.1|9=44|35=0|52=20111124-06:20:29.763|1180=JSEFTSEP|10=099|8=FIXT.1.1|9=44|35=0|52=20111124-06:20:31.763|1180=JSEFTSEP|10=092|8=FIXT.1.1|9=44|35=0|52=20111124-06:20:33.764|1180=JSEFTSEP|10=095|8=FIXT.1.1|9=44|35=0|52=20111124-06:20:35.763|1180=JSEFTSEP|10=096|8=FIXT.1.1|9=44|35=0|52=20111124-06:20:37.763|1180=JSEFTSEP|10=098|8=FIXT.1.1|9=44|35=0|52=20111124-06:20:39.763|1180=JSEFTSEP|10=100|8=FIXT.1.1|9=44|35=0|52=20111124-06:20:41.763|1180=JSEFTSEP|10=093|8=FIXT.1.1|9=44|35=0|52=20111124-06:20:43.763|1180=JSEFTSEP|10=095|8=FIXT.1.1|9=44|35=0|52=20111124-06:20:45.763|1180=JSEFTSEP|10=097|8=FIXT.1.1|9=44|35=0|52=20111124-06:20:47.764|1180=JSEFTSEP|10=100|8=FIXT.1.1|9=44|35=0|52=20111124-06:20:49.763|1180=JSEFTSEP|10=101|8=FIXT.1.1|9=44|35=0|52=20111124-06:20:51.763|1180=JSEFTSEP|10=094|8=FIXT.1.1|9=44|35=0|52=20111124-06:20:53.764|1180=JSEFTSEP|10=097|8=FIXT.1.1|9=44|35=0|52=20111124-06:20:55.763|1180=JSEFTSEP|10=098|8=FIXT.1.1|9=44|35=0|52=20111124-06:20:57.763|1180=JSEFTSEP|10=100|8=FIXT.1.1|9=44|35=0|52=20111124-06:20:59.764|1180=JSEFTSEP|10=103|8=FIXT.1.1|9=44|35=0|52=20111124-06:21:01.764|1180=JSEFTSEP|10=091|8=FIXT.1.1|9=44|35=0|52=20111124-06:21:03.764|1180=JSEFTSEP|10=093|8=FIXT.1.1|9=44|35=0|52=20111124-06:21:05.764|1180=JSEFTSEP|10=095|8=FIXT.1.1|9=44|35=0|52=20111124-06:21:07.764|1180=JSEFTSEP|10=097|8=FIXT.1.1|9=44|35=0|52=20111124-06:21:09.764|1180=JSEFTSEP|10=099|8=FIXT.1.1|9=44|35=0|52=20111124-06:21:11.763|1180=JSEFTSEP|10=091|8=FIXT.1.1|9=44|35=0|52=20111124-06:21:13.767|1180=JSEFTSEP|10=097|8=FIXT.1.1|9=44|35=0|52=20111124-06:21:15.764|1180=JSEFTSEP|10=096|8=FIXT.1.1|9=44|35=0|52=20111124-06:21:17.764|1180=JSEFTSEP|10=098|8=FIXT.1.1|9=44|35=0|52=20111124-06:21:19.763|1180=JSEFTSEP|10=099|8=FIXT.1.1|9=44|35=0|52=20111124-06:21:21.763|1180=JSEFTSEP|10=092|8=FIXT.1.1|9=44|35=0|52=20111124-06:21:23.764|1180=JSEFTSEP|10=095|8=FIXT.1.1|9=44|35=0|52=20111124-06:21:25.763|1180=JSEFTSEP|10=096|8=FIXT.1.1|9=44|35=0|52=20111124-06:21:27.764|1180=JSEFTSEP|10=099|8=FIXT.1.1|9=44|35=0|52=20111124-06:21:29.763|1180=JSEFTSEP|10=100|8=FIXT.1.1|9=44|35=0|52=20111124-06:21:31.763|1180=JSEFTSEP|10=093|8=FIXT.1.1|9=44|35=0|52=20111124-06:21:33.763|1180=JSEFTSEP|10=095|8=FIXT.1.1|9=44|35=0|52=20111124-06:21:35.767|1180=JSEFTSEP|10=101|8=FIXT.1.1|9=44|35=0|52=20111124-06:21:37.763|1180=JSEFTSEP|10=099|8=FIXT.1.1|9=44|35=0|52=20111124-06:21:39.768|1180=JSEFTSEP|10=106|8=FIXT.1.1|9=44|35=0|52=20111124-06:21:41.763|1180=JSEFTSEP|10=094|8=FIXT.1.1|9=44|35=0|52=20111124-06:21:43.763|1180=JSEFTSEP|10=096|8=FIXT.1.1|9=44|35=0|52=20111124-06:21:45.763|1180=JSEFTSEP|10=098|8=FIXT.1.1|9=44|35=0|52=20111124-06:21:47.768|1180=JSEFTSEP|10=105|8=FIXT.1.1|9=44|35=0|52=20111124-06:21:49.764|1180=JSEFTSEP|10=103|8=FIXT.1.1|9=44|35=0|52=20111124-06:21:51.763|1180=JSEFTSEP|10=095|8=FIXT.1.1|9=44|35=0|52=20111124-06:21:53.763|1180=JSEFTSEP|10=097|8=FIXT.1.1|9=44|35=0|52=20111124-06:21:55.763|1180=JSEFTSEP|10=099|8=FIXT.1.1|9=44|35=0|52=20111124-06:21:57.763|1180=JSEFTSEP|10=101|8=FIXT.1.1|9=44|35=0|52=20111124-06:21:59.764|1180=JSEFTSEP|10=104|8=FIXT.1.1|9=44|35=0|52=20111124-06:22:01.764|1180=JSEFTSEP|10=092|8=FIXT.1.1|9=44|35=0|52=20111124-06:22:03.763|1180=JSEFTSEP|10=093|8=FIXT.1.1|9=44|35=0|52=20111124-06:22:05.763|1180=JSEFTSEP|10=095|8=FIXT.1.1|9=44|35=0|52=20111124-06:22:07.763|1180=JSEFTSEP|10=097|8=FIXT.1.1|9=44|35=0|52=20111124-06:22:09.763|1180=JSEFTSEP|10=099|8=FIXT.1.1|9=44|35=0|52=20111124-06:22:11.763|1180=JSEFTSEP|10=092|8=FIXT.1.1|9=44|35=0|52=20111124-06:22:13.764|1180=JSEFTSEP|10=095|8=FIXT.1.1|9=44|35=0|52=20111124-06:22:15.763|1180=JSEFTSEP|10=096|8=FIXT.1.1|9=44|35=0|52=20111124-06:22:17.763|1180=JSEFTSEP|10=098|8=FIXT.1.1|9=44|35=0|52=20111124-06:22:19.763|1180=JSEFTSEP|10=100|8=FIXT.1.1|9=44|35=0|52=20111124-06:22:21.763|1180=JSEFTSEP|10=093|8=FIXT.1.1|9=44|35=0|52=20111124-06:22:23.763|1180=JSEFTSEP|10=095|8=FIXT.1.1|9=44|35=0|52=20111124-06:22:25.764|1180=JSEFTSEP|10=098|8=FIXT.1.1|9=44|35=0|52=20111124-06:22:27.763|1180=JSEFTSEP|10=099|8=FIXT.1.1|9=44|35=0|52=20111124-06:22:29.763|1180=JSEFTSEP|10=101|8=FIXT.1.1|9=44|35=0|52=20111124-06:22:31.763|1180=JSEFTSEP|10=094|8=FIXT.1.1|9=44|35=0|52=20111124-06:22:33.763|1180=JSEFTSEP|10=096|8=FIXT.1.1|9=44|35=0|52=20111124-06:22:33.763|1180=JSEFTSEP|10=096|8=FIXT.1.1|9=44|35=0|52=20111124-06:22:35.763|1180=JSEFTSEP|10=098|8=FIXT.1.1|9=44|35=0|52=20111124-06:22:37.764|1180=JSEFTSEP|10=101|8=FIXT.1.1|9=44|35=0|52=20111124-06:22:39.763|1180=JSEFTSEP|10=102|8=FIXT.1.1|9=44|35=0|52=20111124-06:22:41.763|1180=JSEFTSEP|10=095|8=FIXT.1.1|9=44|35=0|52=20111124-06:22:43.763|1180=JSEFTSEP|10=097|8=FIXT.1.1|9=44|35=0|52=20111124-06:22:45.764|1180=JSEFTSEP|10=100|8=FIXT.1.1|9=44|35=0|52=20111124-06:22:47.763|1180=JSEFTSEP|10=101|8=FIXT.1.1|9=44|35=0|52=20111124-06:22:49.763|1180=JSEFTSEP|10=103|8=FIXT.1.1|9=44|35=0|52=20111124-06: