8=FIX.4.2|9=000063|35=A|49=AAAA|56=BBBB|34=1|52=20170809-12:34:56.000|98=0|108=10|10=199|8=FIX.4.2|9=000126|35=D|49=AAAA|56=BBBB|34=2|52=20170809-12:34:56.000|11=A1|21=1|55=OIH|54=1|60=20170809-12:34:56.000|38=100|40=2|44=500.01|59=1|10=128|